:020000040800F2
:1000000000500020950D0008B50C0008C10C000838
:10001000C70C0008CD0C0008D30C0008000000003D
:10002000000000000000000000000000D90C0008E3
:10003000E50C000800000000F10C0008FD0C0008B1
:10004000DD0D0008DD0D0008DD0D0008DD0D0008E8
:10005000DD0D0008DD0D0008090D0008DD0D0008AC
:10006000DD0D0008DD0D0008DD0D0008DD0D0008C8
:10007000DD0D0008DD0D0008DD0D0008DD0D0008B8
:10008000DD0D0008DD0D0008DD0D0008DD0D0008A8
:10009000190D0008DD0D0008DD0D0008DD0D00085C
:1000A000DD0D0008DD0D0008DD0D0008DD0D000888
:1000B000DD0D0008DD0D0008DD0D0008DD0D000878
:1000C000DD0D0008DD0D0008DD0D0008DD0D000868
:1000D000DD0D0008DD0D0008DD0D0008DD0D000858
:1000E000DD0D0008DD0D0008DD0D0008000000003A
:1000F0000000000000000000000000000000000000
:0C01000000000000000000005FF808F1A3
:10010C0010B5054C237833B9044B13B10448AFF345
:10011C0000800123237010BD84010020000000002A
:10012C00B468000808B5034B1BB103490348AFF38F
:10013C00008008BD0000000088010020B4680008A1
:10014C0090B593B012AF00F045FE00F043F800F00C
:10015C00D3F800F09BF805F0C3FE174B00221A7081
:10016C00164B00221A60164B00221A70154B0022F7
:10017C001A70154C684604F110034822194606F013
:10018C007FFB94E80F0000F05DFA032200215C2055
:10019C0000F070FA0D4B00221A70074B01221A70F6
:1001AC000B4B1B78002B01D000F068F900F0D0F954
:1001BC0000F044F9F4E700BFC0010020C4020020A5
:1001CC00C8020020C902002068050020C2010020DE
:1001DC00CA02002080B594B000AF07F12803282292
:1001EC000021184606F057FB07F1140300221A6091
:1001FC005A609A60DA601A613B1D00221A605A60DC
:10020C009A60DA600123BB624FF48033FB620023F7
:10021C003B630123BB6302237B644FF48033BB64D9
:10022C004FF48013FB6407F12803184601F0E8FF34
:10023C000346002B01D000F0FFF90F237B61022352
:10024C00BB610023FB614FF480633B6200237B6244
:10025C0007F114030121184602F052FA0346002B51
:10026C0001D000F0E9F910237B604FF480033B616F
:10027C003B1D184602F0AEFB0346002B01D000F0EC
:10028C00DBF900BF5037BD4680BD000080B500AF24
:10029C00174B184A1A60164B4FF482725A60144B63
:1002AC0000229A60124B0022DA60114B00221A6174
:1002BC000F4B00225A610E4B4FF400729A610C4B9B
:1002CC001022DA610A4B00221A62094B00225A6290
:1002DC00074B00229A62064B0A22DA62044802F0AB
:1002EC002FFC0346002B01D000F0A6F900BF80BD07
:1002FC00680500200030014080B588B000AF07F1E0
:10030C00100300221A605A609A60DA60374B9B69BE
:10031C00364A43F010039361344B9B6903F010038E
:10032C00FB60FB68314B9B69304A43F020039361BF
:10033C002E4B9B6903F02003BB60BB682B4B9B6966
:10034C002A4A43F004039361284B9B6903F004038E
:10035C007B607B68254B9B69244A43F008039361BF
:10036C00224B9B6903F008033B603B6800224FF46F
:10037C0000511F4801F01AF8002218211D4801F005
:10038C0015F84FF400533B6101237B610023BB61E3
:10039C000223FB6107F110031946154800F0ACFE6F
:1003AC0018233B6101237B610023BB610223FB61AA
:1003BC0007F1100319460F4800F09EFE01233B6124
:1003CC000D4B7B610023BB6107F1100319460B48F1
:1003DC0000F092FE00220021062000F056FE0620BE
:1003EC0000F06FFE00BF2037BD4680BD00100240FC
:1003FC00001001400008014000002110000C0140D9
:10040C0080B582B000AF0346FB80FB88012B08D17E
:10041C00064B1B78002B04D0054A0649064800F011
:10042C003FFB00BF0837BD4680BD00BFC0010020A8
:10043C00C2010020C10100204805002080B500AF9A
:10044C000B4B1B78002B10D0094B00221A70094B58
:10045C001B78002B09D0074B1B789BB2194606481A
:10046C0005F018FE052000F017FD00BF80BD00BF91
:10047C00C2010020C10100204805002080B582B0D7
:10048C0000AF4FF400512C4800F0A8FF2B4B00227A
:10049C001A702B4B1B78002B4AD12A4B1B68013B43
:1004AC00294AD35C3B6000231A463B6893423FD1F8
:1004BC00264B1B78002B03D0214B01221A7037E0FE
:1004CC00204B1B68042B17DD00237B600EE01D4BBB
:1004DC001B681A1F7B6813441B4AD15C1A4A7B6841
:1004EC0013440A461A707B6801337B607B68032BCC
:1004FC00EDDD144B04221A60134B1B78522B11D1D7
:10050C00114B5B78442B0DD10F4B9B78592B09D198
:10051C000C4B1B689BB219460B4805F0BBFD0B4BF3
:10052C0001221A70074B00221A60054B00221A7028
:10053C000837BD4680BD00BF00100140CA02002034
:10054C00C8020020C4020020C4010020C9020020FF
:10055C0080B582B000AF1F4B1B78002B36D01E4BE2
:10056C001B78002B32D01D4B1B68BB711B4B002220
:10057C001A600023FB7121E0BA79FB79D31A202B86
:10058C000FDCFB79164A9818BA79FB79D31ADBB2CF
:10059C00194600F027F8012000F07EFCBB79FB71B6
:1005AC000CE0FB790E4A13442021184600F01AF88F
:1005BC00012000F071FCFB792033FB71FA79BB79D7
:1005CC009A42D9D3044B00221A7000E000BF0837BE
:1005DC00BD4680BDC9020020C8020020C402002014
:1005EC00C401002080B584B000AF78600B46FB706E
:1005FC000023FB730023BB600EE0BB687A681344D6
:10060C0019780C4ABB6813440A461A70FB7B0133F9
:10061C00FB73BB680133BB60FB78BA689A42ECDBB6
:10062C00FB7B1946034800F08DFA00BF1037BD461E
:10063C0080BD00BFA001002080B400AF00BFBD464C
:10064C0080BC704784B080B500AF07F1080C8CE813
:10065C000F00074B184607F1080158231A4606F0FD
:10066C000FF900BFBD46BDE8804004B0704700BF25
:10067C00F004002080B586B000AF0346FB710B463A
:10068C00BB7113467B710323BB7500237B75012360
:10069C003B750023FB740123BB7407237B7400237D
:1006AC003B740723FB73142000F0F6FB564B00221F
:1006BC001A70564B00221A70554B00221A700122E8
:1006CC001021544800F072FE00220821514800F01D
:1006DC006DFE07F116031946032000F09FF807F191
:1006EC0015031946012000F099F807F11403194677
:1006FC00022000F093F807F113031946042000F0D0
:10070C008DF8FB1D1946052000F088F80123FB75B8
:10071C007B79032B2CD801A252F823F0390700085F
:10072C00450700085B07000871070008FB7D23F0F4
:10073C000603DBB2FB751CE0FB7D43F00203DBB26E
:10074C00FB75FB7D23F00403DBB2FB7511E0FB7D35
:10075C0023F00203DBB2FB75FB7D43F00403DBB239
:10076C00FB7506E0FB7D43F00603DBB2FB7500E096
:10077C0000BFBB79002B02D0012B06D00BE0FB7D18
:10078C0023F00803DBB2FB7505E0FB7D43F00803A7
:10079C00DBB2FB7500BFFB7D03F00F03DBB2FB7517
:1007AC0007F117031946062000F038F805221A49FC
:1007BC00102000F05FF8052217490A2000F05AF8C3
:1007CC0007F1120319461C2000F028F807F1110359
:1007DC0019461D2000F022F807F110031946E120FC
:1007EC0000F09CF807F110031946E22000F096F88F
:1007FC0007F10F031946072000F010F800F02CF950
:10080C0000BF1837BD4680BDCB020020CC020020B3
:10081C00CD020020000801400000002080B584B00B
:10082C0000AF03463960FB710123FB81FB79203358
:10083C00DBB2FB71002210210C4800F0B7FDF91D52
:10084C004FF0FF3301220A4802F0DBF9FA894FF02E
:10085C00FF333968064802F0D4F90122102103480D
:10086C0000F0A4FD00BF1037BD4680BD000801405C
:10087C00F004002080B582B000AF03463960FB71F4
:10088C001346BB80FB792033DBB2FB7100221021B5
:10089C000C4800F08BFDF91D4FF0FF3301220A4884
:1008AC0002F0AFF9BA884FF0FF333968064802F00E
:1008BC00A8F901221021034800F078FD00BF083789
:1008CC00BD4680BD00080140F004002080B582B018
:1008DC0000AF03463960FB711346BB800022102128
:1008EC000C4800F063FDF91D4FF0FF3301220A485C
:1008FC0002F087F9BA884FF0FF333968064802F0E6
:10090C0080F901221021034800F050FD00BF083788
:10091C00BD4680BD00080140F004002080B584B0C5
:10092C0000AF03463960FB710123FB8100221021CB
:10093C000C4800F03BFDF91D4FF0FF3301220A4833
:10094C0002F05FF9FA894FF0FF333968064802F07C
:10095C0058F901221021034800F028FD00BF103780
:10096C00BD4680BD00080140F004002080B584B075
:10097C0000AF0346FB710023FB73002210210E48CD
:10098C0000F014FDF91D4FF0FF3301220B4802F06B
:10099C0038F907F10F014FF0FF330122074802F03D
:1009AC0064FA01221021044800F000FDFB7B18467C
:1009BC001037BD4680BD00BF00080140F004002088
:1009CC0080B584B002AF0023FB71FF23BB71002202
:1009DC0010210B4800F0EAFCFA1DB91D4FF0FF3353
:1009EC0000930123074802F049FB0122102104481F
:1009FC0000F0DCFCFB7918460837BD4680BD00BF13
:100A0C0000080140F004002080B582B000AF03461E
:100A1C003960FB711346BB80002210210C4800F09A
:100A2C00C5FCF91D4FF0FF3301220A4802F0E9F82A
:100A3C00BA884FF0FF333968064802F016FA0122E3
:100A4C001021034800F0B2FC00BF0837BD4680BD42
:100A5C0000080140F004002080B582B000AF0D4BBF
:100A6C0000221A700C4B00221A701F23FB710022FB
:100A7C0008210A4800F09AFCFB1D19460020FFF7DC
:100A8C00CDFE01220821054800F090FC00BF08377C
:100A9C00BD4680BDCB020020CD02002000080140E5
:100AAC0080B586B000AFF860B9607A60FFF788FF58
:100ABC0003461A46204B1A701F4B1B7803F0400359
:100ACC00002B1FD01D4B01221A706020FFF74EFF28
:100ADC0003461A46BB681A70BB681B789BB21A4651
:100AEC00F9686120FFF790FFBB681B78202B02D9B7
:100AFC00BB6800221A700021E220FFF70FFF7B6811
:100B0C0001221A700C4B1B7803F02003002B06D02B
:100B1C000B4B01221A700021E120FFF7FFFE70231E
:100B2C00FB7507F1170319460720FFF777FE00BF87
:100B3C001837BD4680BD00BFCB020020CD0200207F
:100B4C00CC02002080B584B000AF78600B46FB70FF
:100B5C00144B00221A7000220821134800F026FCC6
:100B6C001E23FB7307F10F0319460020FFF756FEF7
:100B7C0005220E490A20FFF77DFEFB789BB21A4630
:100B8C007968B020FFF7A2FE01220821064800F088
:100B9C000DFC022000F080F9FFF75EFF00BF10375C
:100BAC00BD4680BDCC0200200008014000000020A2
:100BBC0080B485B000AF154B9B69144A43F0010318
:100BCC009361124B9B6903F00103BB60BB680F4B35
:100BDC00DB690E4A43F08053D3610C4BDB6903F0A5
:100BEC0080537B607B680A4B5B68FB60FB6823F07F
:100BFC00E063FB60FB6843F00073FB60044AFB6836
:100C0C00536000BF1437BD4680BC704700100240D3
:100C1C000000014080B588B000AF786007F1100388
:100C2C0000221A605A609A60DA607B681B681B4A63
:100C3C0093422FD11A4B9B69194A43F48053936109
:100C4C00174B9B6903F48053FB60FB68144B9B6947
:100C5C00134A43F004039361114B9B6903F00403A3
:100C6C00BB60BB68A0233B6102237B610323FB6158
:100C7C0007F1100319460B4800F03EFA40233B6184
:100C8C0000237B610023BB6107F110031946054863
:100C9C0000F032FA00BF2037BD4680BD0030014065
:100CAC00001002400008014080B400AF00BFBD46F8
:100CBC0080BC704780B400AFFEE780B400AFFEE7A5
:100CCC0080B400AFFEE780B400AFFEE780B400AFA5
:100CDC0000BFBD4680BC704780B400AF00BFBD46AE
:100CEC0080BC704780B400AF00BFBD4680BC70476D
:100CFC0080B500AF00F0B4F800BF80BD80B500AF88
:100D0C00012000F083FB00BF80BD000080B500AF68
:100D1C00024800F09AFC00BF80BD00BF880C002088
:100D2C0080B400AF154B1B68144A43F001031360E9
:100D3C00124B5A681149124B13404B600F4B1B68F6
:100D4C000E4A23F0847323F4803313600B4B1B681F
:100D5C000A4A23F480231360084B5B68074A23F488
:100D6C00FE035360054B4FF41F029A60054B4FF086
:100D7C0000629A6000BFBD4680BC70470010024004
:100D8C000000FFF800ED00E0002103E00B4B5B5886
:100D9C00435004310A480B4B42189A42F6D30A4A84
:100DAC0002E0002342F8043B084B9A42F9D3FFF7C8
:100DBC00B7FF05F041FDFFF7C3F97047386900082C
:100DCC00000000208401002084010020F40E00208B
:100DDC00FEE7000080B500AF084B1B68074A43F0E4
:100DEC0010031360032000F045F9002000F008F810
:100DFC00FFF7DEFE0023184680BD00BF0020024036
:100E0C0080B582B000AF7860124B1A68124B1B7819
:100E1C0019464FF47A73B3FBF1F3B2FBF3F31846B4
:100E2C0000F05DF90346002B01D001230EE07B6836
:100E3C000F2B0AD8002279684FF0FF3000F025F90B
:100E4C00064A7B681360002300E00123184608372C
:100E5C00BD4680BD08000020100000200C000020C2
:100E6C0080B400AF054B1B781A46054B1B68134426
:100E7C00034A136000BFBD4680BC704710000020C1
:100E8C00C005002080B400AF024B1B681846BD465D
:100E9C0080BC7047C005002080B584B000AF78607E
:100EAC00FFF7F0FFB8607B68FB60FB68B3F1FF3FB6
:100EBC0005D0094B1B781A46FB681344FB6000BF36
:100ECC00FFF7E0FF0246BB68D31AFA689A42F7D8DC
:100EDC0000BF1037BD4680BD1000002080B485B027
:100EEC0000AF78607B6803F00703FB600C4BDB689A
:100EFC00BB60BA684FF6FF031340BB60FB681A0275
:100F0C00BB68134343F0BF6343F40033BB60044A34
:100F1C00BB68D36000BF1437BD4680BC704700BFB0
:100F2C0000ED00E080B400AF044BDB681B0A03F05B
:100F3C0007031846BD4680BC704700BF00ED00E0BB
:100F4C0080B483B000AF0346FB7197F90730002BD8
:100F5C000BDBFB7903F01F02064997F907305B099D
:100F6C00012000FA02F241F8232000BF0C37BD46E5
:100F7C0080BC704700E100E080B483B000AF034652
:100F8C003960FB7197F90730002B0ADB3B68DAB24A
:100F9C000C4997F907301201D2B20B4483F80023A5
:100FAC000AE03B68DAB20849FB7903F00F03043B13
:100FBC001201D2B20B441A7600BF0C37BD4680BC6E
:100FCC00704700BF00E100E000ED00E080B489B0A4
:100FDC0000AFF860B9607A60FB6803F00703FB614F
:100FEC00FB69C3F10703042B28BF0423BB61FB6916
:100FFC000433062B02D9FB69033B00E000237B6121
:10100C004FF0FF32BB6902FA03F3DA43BB681A40B4
:10101C007B699A404FF0FF317B6901FA03F3D943A6
:10102C007B680B40134318462437BD4680BC704781
:10103C0080B582B000AF78607B68013BB3F1807FF4
:10104C0001D301230FE00A4A7B68013B53600F2157
:10105C004FF0FF30FFF790FF054B00229A60044BD6
:10106C0007221A60002318460837BD4680BD00BF12
:10107C0010E000E080B582B000AF78607868FFF7D0
:10108C002DFF00BF0837BD4680BD80B586B000AFD0
:10109C000346B9607A60FB7300237B61FFF742FF64
:1010AC0078617A68B9687869FFF790FF024697F91A
:1010BC000F3011461846FFF75FFF00BF1837BD46CB
:1010CC0080BD80B582B000AF0346FB7197F9073045
:1010DC001846FFF735FF00BF0837BD4680BD80B509
:1010EC0082B000AF78607868FFF7A2FF034618461D
:1010FC000837BD4680BD000080B48BB000AF78606F
:10110C00396000237B6200233B6227E101227B6A6A
:10111C0002FA03F3FB613B681B68FA691340BB617D
:10112C00BA69FB699A4240F016813B685B68122BE6
:10113C0034D0122B0DD8022B2BD0022B04D8002B21
:10114C0031D0012B1CD048E0032B43D0112B1BD0EA
:10115C0043E0894A934226D0874A934206D8874A6D
:10116C00934220D0864A93421DD036E0854A934262
:10117C0019D0854A934216D0844A934213D02CE05E
:10118C003B68DB683B6228E03B68DB6804333B620E
:10119C0023E03B68DB6808333B621EE03B68DB689E
:1011AC000C333B6219E03B689B68002B02D1042393
:1011BC003B6212E03B689B68012B05D108233B6224
:1011CC007B68FA691A6108E008233B627B68FA695C
:1011DC005A6102E000233B6200BFBB69FF2B01D8C0
:1011EC007B6801E07B6804337B61BB69FF2B02D811
:1011FC007B6A9B0002E07B6A083B9B003B617B693E
:10120C001A680F213B6901FA03F3DB431A40396A70
:10121C003B6901FA03F31A437B691A603B685B680C
:10122C0003F08053002B00F09680594B9B69584A71
:10123C0043F001039361564B9B6903F00103BB60C0
:10124C00BB68544A7B6A9B08023352F82330FB601C
:10125C007B6A03F003039B000F2202FA03F3DB43C8
:10126C00FA681340FB607B684B4A934213D07B684F
:10127C004A4A93420DD07B68494A934207D07B6817
:10128C00484A934201D1032306E0042304E00223DD
:10129C0002E0012300E000237A6A02F003029200CC
:1012AC009340FA681343FB603A497B6A9B0802330C
:1012BC00FA6841F823203B685B6803F48033002B09
:1012CC0006D0394B1A683849BB6913430B6006E0EA
:1012DC00354B1A68BB69DB43334913400B603B68E1
:1012EC005B6803F40033002B06D02F4B5A682E4951
:1012FC00BB6913434B6006E02B4B5A68BB69DB435D
:10130C00294913404B603B685B6803F48013002B46
:10131C0006D0254B9A682449BB6913438B6006E0C1
:10132C00214B9A68BB69DB431F4913408B603B68B8
:10133C005B6803F40013002B06D01B4BDA681A49C8
:10134C00BB691343CB6006E0174BDA68BB69DB4320
:10135C0015491340CB607B6A01337B623B681A688A
:10136C007B6A22FA03F3002B7FF4D0AE00BF2C373C
:10137C00BD4680BC704700BF00002110000011105A
:10138C00000012100000311000003210000022107A
:10139C00001002400000014000080140000C014018
:1013AC0000100140001401400004014080B483B0DF
:1013BC0000AF78600B467B8013467B707B78002BEC
:1013CC0003D07A887B681A6103E07B881A047B68F7
:1013DC001A6100BF0C37BD4680BC704780B483B027
:1013EC0000AF78600B467B807B68DA687B881340A3
:1013FC00002B03D07A887B685A6102E07A887B687C
:10140C001A6100BF0C37BD4680BC704780B582B0F6
:10141C0000AF0346FB80084B5A69FB881340002B36
:10142C0006D0054AFB885361FB881846FEF7E8FF97
:10143C0000BF0837BD4680BD00040140F0B58BB03D
:10144C0006AF78607B68002B01D10123D3E07B6869
:10145C0093F82932DBB2002B06D17B68002283F88B
:10146C002822786804F04AFF7B68032283F829223B
:10147C007B681B68184602F0A4F87B681B683B600D
:10148C007E686D4606F110040FCC0FC523682B60E7
:10149C00331D0ECB386802F06DF80346002B05D0D7
:1014AC007B68022283F829220123A4E07B681B6855
:1014BC000021184602F0A1F80023FB7335E0FB7BFA
:1014CC007A685B011344293301221A70FB7B7A681A
:1014DC005B0113442833FA7B1A70FB7BFA7B91B2C5
:1014EC007A685B01134436330A461A80FB7B7A68B0
:1014FC005B0113442B3300221A70FB7B7A685B016F
:10150C001344383300221A60FB7B7A685B01134466
:10151C003C3300221A60FB7B7A6802335B01134474
:10152C0000221A60FB7B0133FB73FA7B7B685B68E0
:10153C009A42C4D30023FB7331E0FB7B7A685B01D6
:10154C00134403F2291300221A70FB7B7A685B01A7
:10155C00134403F59473FA7B1A70FB7B7A685B0176
:10156C00134403F22B1300221A70FB7B7A685B0185
:10157C00134403F59C7300221A60FB7B7A685B01B1
:10158C00134403F59E7300221A60FB7B7A680A33BE
:10159C005B01134400221A60FB7B0133FB73FA7B63
:1015AC007B685B689A42C8D37B681B683B607E682B
:1015BC006D4606F110040FCC0FC523682B60331D4C
:1015CC000ECB386802F025F80346002B05D07B685B
:1015DC00022283F8292201230DE07B68002283F884
:1015EC0024207B68012283F829227B681B6818461B
:1015FC0003F063F8002318461437BD46F0BD80B5E0
:10160C0082B000AF78607B6893F82832012B01D14F
:10161C00022316E07B68012283F8282201217868D6
:10162C0005F0D3F87B681B68184603F03CF87B6820
:10163C001B68184601F0AEFF7B68002283F8282255
:10164C00002318460837BD4680BD80B582B000AF78
:10165C0078607B681B68184603F039F8034603F47E
:10166C000043B3F5004F02D1786800F0F3FA7B68C1
:10167C001B68184603F02BF8034603F48063B3F59C
:10168C00806F12D17B681B68B3F844309AB27B68C8
:10169C001B6822F4806292B2A3F84420786804F0AC
:1016AC00A2FE0021786800F0DEF87B681B68184603
:1016BC0003F00DF8034603F48043B3F5804F0BD1D0
:1016CC007B681B68B3F844309AB27B681B6822F4C1
:1016DC00804292B2A3F844207B681B68184602F043
:1016EC00F6FF034603F40053B3F5005F0BD17B68A0
:1016FC001B68B3F844309AB27B681B6822F4005222
:10170C0092B2A3F844207B681B68184602F0DFFFF6
:10171C00034603F48053B3F5805F26D17B681B68C6
:10172C00B3F840309AB27B681B6822F0040292B284
:10173C00A3F840207B681B68B3F840309AB27B68F2
:10174C001B6822F0080292B2A3F84020786804F0DB
:10175C0083FE7B681B68B3F844309AB27B681B68C5
:10176C0022F4805292B2A3F844207B681B6818467E
:10177C0002F0ADFF034603F40063B3F5006F3DD1F7
:10178C007B681B68B3F840309AB27B681B6842F0E8
:10179C00080292B2A3F840207B681B68B3F844306F
:1017AC009AB27B681B6822F4006292B2A3F84420C0
:1017BC007B681B68B3F840309AB27B681B6842F0B8
:1017CC00040292B2A3F840207B681B68184602F012
:1017DC007EFF034603F48053B3F5805F0BD17B6827
:1017EC001B68B3F844309AB27B681B6822F48052B1
:1017FC0092B2A3F84420786804F014FE7B681B684E
:10180C00184602F064FF034603F40073B3F5007F3F
:10181C000ED17B681B68B3F844309AB27B681B68A6
:10182C0022F4007292B2A3F84420786804F0CDFD43
:10183C007B681B68184602F04AFF034603F480736A
:10184C00B3F5807F0BD17B681B68B3F844309AB238
:10185C007B681B6822F4807292B2A3F8442000BF0C
:10186C000837BD4680BD80B582B000AF78600B46AE
:10187C00FB707B6893F82832012B01D1022313E013
:10188C007B68012283F828227B68FA7883F824206D
:10189C007B681B68FA781146184602F0F1FE7B68EB
:1018AC00002283F82822002318460837BD4680BD45
:1018BC0080B584B000AF7860084611461A460346DE
:1018CC00FB700B463B801346BB700023FB7297F9F1
:1018DC000330002B0BDAFB7803F007035B01283392
:1018EC007A681344FB60FB6801225A700BE0FB78AA
:1018FC0003F007035B0103F594737A681344FB60F0
:10190C00FB6800225A70FB7803F00703DAB2FB681D
:10191C001A703A88FB681A61FB68BA78DA70FB684F
:10192C005B78002B04D0FB681B789AB2FB68DA81D9
:10193C00BB78022B02D1FB6800221A717B6893F8EA
:10194C002832012B01D102230EE07B68012283F89F
:10195C0028227B681B68F968184601F07FFE7B68BB
:10196C00002283F82822FB7A18461037BD4680BD2A
:10197C0080B584B000AF78600B46FB7097F90330EC
:10198C00002B0BDAFB7803F007035B0128337A6832
:10199C001344FB60FB6801225A700BE0FB7803F0E8
:1019AC0007035B0103F594737A681344FB60FB68CF
:1019BC0000225A70FB7803F00703DAB2FB681A7046
:1019CC007B6893F82832012B01D102230EE07B684F
:1019DC00012283F828227B681B68F968184602F0FC
:1019EC002BF97B68002283F8282200231846103735
:1019FC00BD4680BD80B586B000AFF8607A603B60B4
:101A0C000B46FB72FB7A03F007035B0103F594733F
:101A1C00FA6813447B617B697A685A617B693A681E
:101A2C009A617B690022DA617B6900225A70FB7A29
:101A3C0003F00703DAB27B691A70FB7A03F0070331
:101A4C00002B06D1FB681B687969184602F08AFAEC
:101A5C0005E0FB681B687969184602F083FA0023DD
:101A6C0018461837BD4680BD80B483B000AF78608F
:101A7C000B46FB70FB7803F007037A680A335B01B3
:101A8C00134404331B6818460C37BD4680BC7047A2
:101A9C0080B586B000AFF8607A603B600B46FB7295
:101AAC00FB7A03F007035B012833FA6813447B616C
:101ABC007B697A685A617B693A689A617B69002212
:101ACC00DA617B6901225A70FB7A03F00703DAB200
:101ADC007B691A70FB7A03F00703002B06D1FB68B5
:101AEC001B687969184602F03DFA05E0FB681B6833
:101AFC007969184602F036FA002318461837BD46A5
:101B0C0080BD80B584B000AF78600B46FB70FB786D
:101B1C0003F007027B685B689A4201D9012346E017
:101B2C0097F90330002B0BDAFB7803F007035B010A
:101B3C0028337A681344FB60FB6801225A7009E071
:101B4C00FB785B0103F594737A681344FB60FB68C4
:101B5C0000225A70FB6801229A70FB7803F007038D
:101B6C00DAB2FB681A707B6893F82832012B01D12A
:101B7C0002231CE07B68012283F828227B681B6807
:101B8C00F968184602F0A6FCFB7803F00703002B5B
:101B9C0008D17B681A687B6803F50C7319461046EC
:101BAC0002F0A4FD7B68002283F82822002318464B
:101BBC001037BD4680BD80B584B000AF78600B4651
:101BCC00FB70FB7803F00F027B685B689A4201D9CB
:101BDC0001233AE097F90330002B0BDAFB7803F082
:101BEC0007035B0128337A681344FB60FB6801220E
:101BFC005A700BE0FB7803F007035B0103F5947359
:101C0C007A681344FB60FB6800225A70FB68002260
:101C1C009A70FB7803F00703DAB2FB681A707B68E2
:101C2C0093F82832012B01D102230EE07B680122AC
:101C3C0083F828227B681B68F968184602F08CFC34
:101C4C007B68002283F82822002318461037BD46F3
:101C5C0080BD000090B589B000AF786082E27B68EF
:101C6C001B68B3F84430FB82FB8ADBB203F00F0332
:101C7C007B757B7D002B40F04281FB8A03F01003C7
:101C8C00002B51D17B681B681B889BB223F4E1436A
:101C9C0023F070039CB27B681A686FEA44436FEAC6
:101CAC0053439BB213807B682833FB607B681B68B3
:101CBC00B3F850309BB21A46FB681B78DB00134418
:101CCC0002335B007A681268134403F580631B8847
:101CDC00C3F30902FB68DA61FB685A69FB68DB69CC
:101CEC001A44FB685A610021786804F057FB7B6842
:101CFC0093F82430DBB2002B00F03482FB689B6934
:101D0C00002B40F02F827B6893F82430DBB263F019
:101D1C007F03DAB27B681B6892B2A3F84C207B6815
:101D2C00002283F824201DE27B6803F59473FB608A
:101D3C007B681B681B887B827B8A03F40063002B07
:101D4C0033D07B681B68B3F850309BB21A46FB68E3
:101D5C001B78DB00134406335B007A68126813446B
:101D6C0003F580631B88C3F30902FB68DA617B68A7
:101D7C0018687B6803F50C71FB68DA88FB68DB6913
:101D8C009BB202F002FD7B681B681B889AB240F67E
:101D9C008F7313409CB27B681B6844F0800292B234
:101DAC001A80786804F0D0FADCE1B7F91230002B15
:101DBC0080F2D8817B681B681B889AB240F68F73BF
:101DCC0013409CB27B681B6844F0800292B21A806C
:101DDC007B681B68B3F850309BB21A46FB681B78C3
:101DEC00DB00134406335B007A681268134403F576
:101DFC0080631B88C3F30902FB68DA61FB68DB694B
:101E0C00002B19D0FB685B69002B15D07B68186818
:101E1C00FB685969FB68DA88FB68DB699BB202F0E6
:101E2C00B4FCFB685A69FB68DB691A44FB685A61AD
:101E3C000021786804F09AFA7B681B681C467B6862
:101E4C001B68B3F850309BB21C4404F20C431C4684
:101E5C00FB681B69002B0ED123889BB223F4F8433B
:101E6C009BB2238023889BB26FEA43436FEA5343B0
:101E7C009BB223802DE0FB681B693E2B12D8FB68BC
:101E8C001B695B08BB61FB681B6903F00103002B3A
:101E9C0002D0BB690133BB61BB699BB29B029BB295
:101EAC00238016E0FB681B695B09BB61FB681B693F
:101EBC0003F01F03002B02D1BB69013BBB61BB6963
:101ECC009BB29B029BB26FEA43436FEA53439BB2B4
:101EDC0023807B681B681B889BB223F4804323F010
:101EEC0070039CB284F480539CB284F400539CB273
:101EFC007B681A68A24B23439BB2138032E17B6848
:101F0C001B681A467B7D9B0013441B887B82B7F9A8
:101F1C001230002B80F2D1807B681B681A467B7DC7
:101F2C009B0013441B889AB240F68F7313409CB2EB
:101F3C007B681B681A467B7D9B00134444F080022F
:101F4C0092B21A807B7D5B0103F594737A6813441B
:101F5C00FB60FB681B7B002B21D17B681B68B3F8F3
:101F6C0050309BB21A46FB681B78DB0013440633D7
:101F7C005B007A681268134403F580631B88C3F313
:101F8C000903FB83FB8B002B72D07B681868FB6802
:101F9C005969FB68DA88FB8B02F0F7FB68E07B6819
:101FAC001B681A46FB681B789B0013441B889BB26A
:101FBC0003F48043002B21D07B681B68B3F85030AE
:101FCC009BB21A46FB681B78DB00134402335B00A0
:101FDC007A681268134403F580631B88C3F3090302
:101FEC00FB83FB8B002B2AD07B681868FB68596934
:101FFC00FB681A89FB8B02F0C8FB20E07B681B682E
:10200C00B3F850309BB21A46FB681B78DB001344C4
:10201C0006335B007A681268134403F580631B88EF
:10202C00C3F30903FB83FB8B002B08D07B68186878
:10203C00FB685969FB685A89FB8B02F0A6FB7B682D
:10204C001B681A46FB681B789B0013441B889BB2C9
:10205C0023F4E04323F070039CB27B681B681A46A0
:10206C00FB681B789B001A44464B23439BB213809E
:10207C00FB68DA69FB8B1A44FB68DA61FB685A6906
:10208C00FB8B1A44FB685A61FB689B69002B04D0DC
:10209C00FA8BFB681B699A4206D2FB681B781946BF
:1020AC00786804F063F908E0FB681978FB685A69F2
:1020BC00FB689B697868FFF79DFC7B8A03F08003C3
:1020CC00002B4FD07B7D5B0128337A681344FB6077
:1020DC007B681B681A467B7D9B0013441B889BB254
:1020EC0023F4E14323F070039CB27B681B681A460F
:1020FC007B7D9B001A446FEA44436FEA53439BB2C7
:10210C0013807B681B68B3F850309BB21A46FB688F
:10211C001B78DB00134402335B007A6812681344AB
:10212C0003F580631B88C3F30902FB68DA61FB6863
:10213C005A69FB68DB691A44FB685A61FB689B6946
:10214C00002B06D1FB681B781946786804F026F939
:10215C0008E0FB681978FB685A69FB689B6978682A
:10216C00FFF796FC7B681B68B3F844309BB21BB23C
:10217C00002BFFF674AD002318462437BD4690BDE6
:10218C008080FFFFC080FFFF80B487B000AFF86095
:10219C007B600B467B8113463B817B8903F080037C
:1021AC009BB2002B08D07B8903F007035B0128331B
:1021BC00FA6813447B6106E07B895B0103F5947339
:1021CC00FA6813447B613B89002B07D17B690022A1
:1021DC001A737B689AB27B69DA800BE07B69012207
:1021EC001A737B689AB27B691A817B681B0C9AB252
:1021FC007B695A81002318461C37BD4680BC70474A
:10220C0080B586B000AF78607B68002B01D10123CC
:10221C006CE27B681B6803F00103002B00F08780E5
:10222C00924B5B6803F00C03042B0CD08F4B5B6858
:10223C0003F00C03082B12D18C4B5B6803F4803336
:10224C00B3F5803F0BD1894B1B6803F40033002B93
:10225C006CD07B685B68002B68D1012346E27B68FD
:10226C005B68B3F5803F06D1804B1B687F4A43F413
:10227C00803313602EE07B685B68002B0CD17B4BAA
:10228C001B687A4A23F480331360784B1B68774AB7
:10229C0023F4802313601DE07B685B68B3F5A02FEB
:1022AC000CD1724B1B68714A43F4802313606F4B43
:1022BC001B686E4A43F4803313600BE06B4B1B6856
:1022CC006A4A23F480331360684B1B68674A23F413
:1022DC00802313607B685B68002B13D0FEF7D2FD64
:1022EC00386108E0FEF7CEFD02463B69D31A642B39
:1022FC0001D90323FAE15D4B1B6803F40033002B77
:10230C00F0D014E0FEF7BEFD386108E0FEF7BAFD30
:10231C0002463B69D31A642B01D90323E6E1534BE4
:10232C001B6803F40033002BF0D100E000BF7B6886
:10233C001B6803F00203002B63D04C4B5B6803F06B
:10234C000C03002B0BD0494B5B6803F00C03082BE0
:10235C001CD1464B5B6803F48033002B16D1434BE6
:10236C001B6803F00203002B05D07B681B69012B53
:10237C0001D00123BAE13D4B1B6823F0F8027B68C6
:10238C005B69DB00394913430B603AE07B681B69DE
:10239C00002B20D0364B01221A60FEF773FD3861FA
:1023AC0008E0FEF76FFD02463B69D31A022B01D9F8
:1023BC0003239BE12D4B1B6803F00203002BF0D091
:1023CC002A4B1B6823F0F8027B685B69DB0027490A
:1023DC0013430B6015E0264B00221A60FEF752FDEA
:1023EC00386108E0FEF74EFD02463B69D31A022B1A
:1023FC0001D903237AE11D4B1B6803F00203002B68
:10240C00F0D17B681B6803F00803002B3AD07B6883
:10241C009B69002B19D0174B01221A60FEF732FD75
:10242C00386108E0FEF72EFD02463B69D31A022BF9
:10243C0001D903235AE10D4B5B6A03F00203002B15
:10244C00F0D0012000F0A8FA1CE00A4B00221A6020
:10245C00FEF718FD38610FE0FEF714FD02463B69EC
:10246C00D31A022B08D9032340E100BF001002400D
:10247C0000004242800442429E4B5B6A03F002031E
:10248C00002BE9D17B681B6803F00403002B00F0E0
:10249C00A6800023FB75974BDB6903F08053002B60
:1024AC000DD1944BDB69934A43F08053D361914B2C
:1024BC00DB6903F08053BB60BB680123FB758E4B5B
:1024CC001B6803F48073002B18D18B4B1B688A4A52
:1024DC0043F480731360FEF7D5FC386108E0FEF717
:1024EC00D1FC02463B69D31A642B01D90323FDE0CE
:1024FC00814B1B6803F48073002BF0D07B68DB6886
:10250C00012B06D17B4B1B6A7A4A43F00103136201
:10251C002DE07B68DB68002B0CD1764B1B6A754A6F
:10252C0023F001031362734B1B6A724A23F00403FA
:10253C0013621CE07B68DB68052B0CD16D4B1B6AAE
:10254C006C4A43F0040313626A4B1B6A694A43F0FA
:10255C00010313620BE0674B1B6A664A23F001030D
:10256C001362644B1B6A634A23F0040313627B6897
:10257C00DB68002B15D0FEF785FC38610AE0FEF70E
:10258C0081FC02463B69D31A41F28832934201D94D
:10259C000323ABE0574B1B6A03F00203002BEED076
:1025AC0014E0FEF76FFC38610AE0FEF76BFC0246A4
:1025BC003B69D31A41F28832934201D9032395E047
:1025CC004C4B1B6A03F00203002BEED1FB7D012B5D
:1025DC0005D1484BDB69474A23F08053D3617B68B4
:1025EC00DB69002B00F08180424B5B6803F00C032D
:1025FC00082B61D07B68DB69022B46D13F4B002254
:10260C001A60FEF73FFC386108E0FEF73BFC02461F
:10261C003B69D31A022B01D9032367E0354B1B68A6
:10262C0003F00073002BF0D17B681B6AB3F5803F7D
:10263C0008D1304B5B6823F400327B689B682D49D2
:10264C0013434B602B4B5B6823F474127B68196A41
:10265C007B685B6A0B43274913434B60274B012272
:10266C001A60FEF70FFC386108E0FEF70BFC02461F
:10267C003B69D31A022B01D9032337E01D4B1B688E
:10268C0003F00073002BF0D02FE01C4B00221A60DB
:10269C00FEF7F8FB386108E0FEF7F4FB02463B69F5
:1026AC00D31A022B01D9032320E0124B1B6803F031
:1026BC000073002BF0D118E07B68DB69012B01D192
:1026CC00012313E00B4B5B68FB60FB6803F4803267
:1026DC007B681B6A9A4206D1FB6803F470127B6814
:1026EC005B6A9A4201D0012300E000231846183798
:1026FC00BD4680BD001002400070004060004242A8
:10270C0080B584B000AF786039607B68002B01D154
:10271C000123D0E06A4B1B6803F007033A689A4226
:10272C0010D9674B1B6823F0070265493B681343BC
:10273C000B60634B1B6803F007033A689A4201D0A5
:10274C000123B8E07B681B6803F00203002B20D048
:10275C007B681B6803F00403002B05D0594B5B68A6
:10276C00584A43F4E06353607B681B6803F008032A
:10277C00002B05D0534B5B68524A43F460535360B3
:10278C00504B5B6823F0F0027B689B684D49134308
:10279C004B607B681B6803F00103002B40D07B6807
:1027AC005B68012B07D1474B1B6803F40033002BEC
:1027BC0015D101237FE07B685B68022B07D1414B6D
:1027CC001B6803F00073002B09D1012373E03D4B10
:1027DC001B6803F00203002B01D101236BE0394B82
:1027EC005B6823F003027B685B68364913434B60DC
:1027FC00FEF748FBF8600AE0FEF744FB0246FB6874
:10280C00D31A41F28832934201D9032353E02D4B62
:10281C005B6803F00C027B685B689B009A42EBD10F
:10282C00274B1B6803F007033A689A4210D2244BDB
:10283C001B6823F0070222493B6813430B60204BB3
:10284C001B6803F007033A689A4201D0012332E077
:10285C007B681B6803F00403002B08D0194B5B68E2
:10286C0023F4E0627B68DB68164913434B607B689A
:10287C001B6803F00803002B09D0124B5B6823F490
:10288C0060527B681B69DB000E4913434B6000F000
:10289C0021F801460B4B5B681B0903F00F030A4A36
:1028AC00D35C21FA03F3094A1360094B1B681846E1
:1028BC00FEF7A6FA002318461037BD4680BD00BFB0
:1028CC00002002400010024020690008080000208F
:1028DC000C00002090B48AB000AF2A4B3C1D0FCBEB
:1028EC0084E80F00284B1B883B800023FB610023EE
:1028FC00BB6100237B6200237B6100233B62234B83
:10290C005B68FB61FB6903F00C03042B02D0082B02
:10291C0003D02DE01E4B3B622DE0FB699B0C03F0BA
:10292C000F0307F12802134413F8243C7B61FB6965
:10293C0003F48033002B13D0144B5B685B0C03F057
:10294C00010307F12802134413F8283CBB617B698F
:10295C000F4A02FB03F2BB69B2FBF3F37B6204E0A8
:10296C007B690C4A02FB03F37B627B6A3B6202E0ED
:10297C00074B3B6200BF3B6A18462837BD4690BCEC
:10298C00704700BFCC680008DC68000800100240EB
:10299C0000127A0000093D0080B485B000AF786069
:1029AC000A4B1B680A4AA2FB03235B0A7A6802FBE8
:1029BC0003F3FB6000BFFB685A1EFA60002BF9D1D1
:1029CC0000BF1437BD4680BC704700BF0800002014
:1029DC00D34D621080B586B000AF786000233B61A8
:1029EC000023FB607B681B6803F00103002B7DD088
:1029FC000023FB754F4BDB6903F08053002B0DD18B
:102A0C004C4BDB694B4A43F08053D361494BDB6938
:102A1C0003F08053BB60BB680123FB75464B1B68FE
:102A2C0003F48073002B18D1434B1B68424A43F4C8
:102A3C0080731360FEF726FA386108E0FEF722FA7D
:102A4C0002463B69D31A642B01D903236DE03A4B40
:102A5C001B6803F48073002BF0D0364B1B6A03F415
:102A6C004073FB60FB68002B2ED07B685B6803F423
:102A7C004073FA689A4227D02E4B1B6A23F440739A
:102A8C00FB602E4B01221A602C4B00221A60294A43
:102A9C00FB681362FB6803F00103002B14D0FEF7F4
:102AAC00F1F938610AE0FEF7EDF902463B69D31AF9
:102ABC0041F28832934201D9032336E01D4B1B6A45
:102ACC0003F00203002BEED01A4B1B6A23F4407266
:102ADC007B685B68174913430B62FB7D012B05D1A7
:102AEC00144BDB69134A23F08053D3617B681B685A
:102AFC0003F00203002B08D00E4B5B6823F440421A
:102B0C007B689B680B4913434B607B681B6803F025
:102B1C001003002B08D0074B5B6823F480027B6802
:102B2C00DB68044913434B60002318461837BD4635
:102B3C0080BD00BF001002400070004040044242C3
:102B4C0080B582B000AF78607B68002B01D1012387
:102B5C0053E07B6800229A627B6893F85130DBB2B9
:102B6C00002B06D17B68002283F850207868FEF792
:102B7C0051F87B68022283F851207B681B681A6825
:102B8C007B681B6822F040021A607B685A687B687D
:102B9C009B681A437B68DB681A437B681B691A4382
:102BAC007B685B691A437B689B6903F400731A4367
:102BBC007B68DB691A437B681B6A42EA03017B680A
:102BCC009A6A7B681B680A431A607B689B691A0CBB
:102BDC007B681B6802F004025A607B681B68DA6928
:102BEC007B681B6822F40062DA617B6800225A65FC
:102BFC007B68012283F85120002318460837BD4614
:102C0C0080BD80B588B000AFF860B9603B601346FA
:102C1C00FB800023FB77FB6893F85030012B01D12C
:102C2C0002231EE1FB68012283F85020FEF72AF9EB
:102C3C00B861FB88FB82FB6893F85130DBB2012B47
:102C4C0002D00223FB7703E1BB68002B02D0FB8888
:102C5C00002B02D10123FB77FAE0FB68032283F8F7
:102C6C005120FB6800225A65FB68BA681A63FB683E
:102C7C00FA889A86FB68FA88DA86FB6800229A63DF
:102C8C00FB6800229A87FB680022DA87FB68002227
:102C9C005A64FB6800221A64FB689B68B3F5004F0A
:102CAC0007D1FB681B681A68FB681B6842F48042FA
:102CBC001A60FB681B681B6803F04003402B07D0AD
:102CCC00FB681B681A68FB681B6842F040021A60BC
:102CDC00FB68DB68B3F5006F4BD1FB685B68002BBE
:102CEC0002D0FB8A012B3ED1FB681B6B1A88FB6858
:102CFC001B68DA60FB681B6B9A1CFB681A63FB6829
:102D0C00DB8E9BB2013B9AB2FB68DA862BE0FB6848
:102D1C001B689B6803F00203022B12D1FB681B6B30
:102D2C001A88FB681B68DA60FB681B6B9A1CFB68D3
:102D3C001A63FB68DB8E9BB2013B9AB2FB68DA86A6
:102D4C0011E0FEF79FF80246BB69D31A3A689A4223
:102D5C0003D83B68B3F1FF3F02D13B68002B02D193
:102D6C000323FB7774E0FB68DB8E9BB2002BCED188
:102D7C004CE0FB685B68002B02D0FB8A012B40D136
:102D8C00FB681A6BFB681B680C3312781A70FB68B3
:102D9C001B6B5A1CFB681A63FB68DB8E9BB2013BF6
:102DAC009AB2FB68DA862CE0FB681B689B6803F020
:102DBC000203022B13D1FB681A6BFB681B680C33E4
:102DCC0012781A70FB681B6B5A1CFB681A63FB6841
:102DDC00DB8E9BB2013B9AB2FB68DA8611E0FEF700
:102DEC0051F80246BB69D31A3A689A4203D83B6839
:102DFC00B3F1FF3F02D13B68002B02D10323FB77D9
:102E0C0026E0FB68DB8E9BB2002BCDD1BA6939680A
:102E1C00F86800F091FB0346002B02D0FB682022DF
:102E2C005A65FB689B68002B0AD100233B61FB6849
:102E3C001B68DB683B61FB681B689B683B613B69FB
:102E4C00FB685B6D002B02D00123FB7700E000BF19
:102E5C00FB68012283F85120FB68002283F8502084
:102E6C00FB7F18462037BD4680BD80B588B002AFC9
:102E7C00F860B9603B601346FB800023FB75FB6870
:102E8C005B68B3F5827F12D1FB689B68002B0ED177
:102E9C00FB68042283F85120FA883B6800931346A0
:102EAC00BA68B968F86800F0E9F80346E2E0FB6834
:102EBC0093F85030012B01D10223DBE0FB68012297
:102ECC0083F85020FDF7DEFF3861FB6893F8513032
:102EDC00DBB2012B02D00223FB75C2E0BB68002BD6
:102EEC0002D0FB88002B02D10123FB75B9E0FB68F3
:102EFC00042283F85120FB6800225A65FB68BA68EB
:102F0C009A63FB68FA889A87FB68FA88DA87FB6809
:102F1C0000221A63FB6800229A86FB680022DA867C
:102F2C00FB6800221A64FB6800225A64FB689B68E9
:102F3C00B3F5004F07D1FB681B681A68FB681B6868
:102F4C0022F480421A60FB681B681B6803F0400384
:102F5C00402B07D0FB681B681A68FB681B6842F0A3
:102F6C0040021A60FB68DB68002B62D12EE0FB6824
:102F7C001B689B6803F00103012B15D1FB681B68D0
:102F8C0003F10C02FB689B6B1278D2B21A70FB68CF
:102F9C009B6B5A1CFB689A63FB68DB8F9BB2013BF3
:102FAC009AB2FB68DA8711E0FDF76CFF02463B69C9
:102FBC00D31A3A689A4203D83B68B3F1FF3F02D167
:102FCC003B68002B02D10323FB754AE0FB68DB8FC7
:102FDC009BB2002BCBD131E0FB681B689B6803F0E4
:102FEC000103012B13D1FB681B68DA68FB689B6B30
:102FFC0092B21A80FB689B6B9A1CFB689A63FB6805
:10300C00DB8F9BB2013B9AB2FB68DA8711E0FDF7CC
:10301C0039FF02463B69D31A3A689A4203D83B6897
:10302C00B3F1FF3F02D13B68002B02D10323FB75A8
:10303C0017E0FB68DB8F9BB2002BCDD13A69396866
:10304C00F86800F027FA0346002B02D0FB68202218
:10305C005A65FB685B6D002B02D00123FB7500E009
:10306C0000BFFB68012283F85120FB68002283F823
:10307C005020FB7D18461837BD4680BD80B58CB0FE
:10308C0000AFF860B9607A607B800123FB6200239B
:10309C0087F82B30FB6893F85030012B01D10223B9
:1030AC008AE1FB68012283F85020FDF7EBFE786281
:1030BC00FB6893F8513087F82330FB685B68FB6141
:1030CC007B887B8397F82330012B0FD0FB69B3F5FA
:1030DC00827F07D1FB689B68002B03D197F82330C4
:1030EC00042B03D0022387F82B305BE1BB68002B49
:1030FC0005D07B68002B02D07B88002B03D10123E9
:10310C0087F82B304EE1FB6893F85130DBB2042B7F
:10311C0003D0FB68052283F85120FB6800225A6516
:10312C00FB687A689A63FB687A88DA87FB687A8826
:10313C009A87FB68BA681A63FB687A88DA86FB6838
:10314C007A889A86FB6800221A64FB6800225A640B
:10315C00FB681B681B6803F04003402B07D0FB681F
:10316C001B681A68FB681B6842F040021A60FB6817
:10317C00DB68B3F5006F78D1FB685B68002B02D07D
:10318C007B8B012B66D1FB681B6B1A88FB681B6859
:10319C00DA60FB681B6B9A1CFB681A63FB68DB8E9E
:1031AC009BB2013B9AB2FB68DA8653E0FB681B6862
:1031BC009B6803F00203022B1BD1FB68DB8E9BB2D6
:1031CC00002B16D0FB6A012B13D1FB681B6B1A88E2
:1031DC00FB681B68DA60FB681B6B9A1CFB681A6344
:1031EC00FB68DB8E9BB2013B9AB2FB68DA8600234C
:1031FC00FB62FB681B689B6803F00103012B19D170
:10320C00FB68DB8F9BB2002B14D0FB681B68DA6861
:10321C00FB689B6B92B21A80FB689B6B9A1CFB68D9
:10322C009A63FB68DB8F9BB2013B9AB2FB68DA872F
:10323C000123FB62FDF726FE02467B6AD31ABA6BAA
:10324C009A4207D8BB6BB3F1FF3F03D0032387F837
:10325C002B30A7E0FB68DB8E9BB2002BA6D1FB6862
:10326C00DB8F9BB2002BA1D17CE0FB685B68002B51
:10327C0002D07B8B012B6BD1FB681A6BFB681B6834
:10328C000C3312781A70FB681B6B5A1CFB681A63A0
:10329C00FB68DB8E9BB2013B9AB2FB68DA8657E087
:1032AC00FB681B689B6803F00203022B1CD1FB68B4
:1032BC00DB8E9BB2002B17D0FB6A012B14D1FB6861
:1032CC001A6BFB681B680C3312781A70FB681B6B4B
:1032DC005A1CFB681A63FB68DB8E9BB2013B9AB2EB
:1032EC00FB68DA860023FB62FB681B689B6803F0B3
:1032FC000103012B19D1FB68DB8F9BB2002B14D07F
:10330C00FB681B68DA68FB689B6BD2B21A70FB68AF
:10331C009B6B5A1CFB689A63FB68DB8F9BB2013B6F
:10332C009AB2FB68DA870123FB62FDF7ABFD02461C
:10333C007B6AD31ABA6B9A4203D8BB6BB3F1FF3FCB
:10334C0002D1BB6B002B03D1032387F82B3029E070
:10335C00FB68DB8E9BB2002BA2D1FB68DB8F9BB290
:10336C00002B9DD17A6AB96BF86800F0E5F803463A
:10337C00002B06D0012387F82B30FB6820225A65DE
:10338C0010E0FB689B68002B0BD100237B61FB6872
:10339C001B68DB687B61FB681B689B687B617B69D6
:1033AC0000E000BFFB68012283F85120FB6800227B
:1033BC0083F8502097F82B3018463037BD4680BD27
:1033CC0080B584B000AFF860B9603B601346FB7108
:1033DC004CE03B68B3F1FF3F48D0FDF753FD02468C
:1033EC00BB69D31A3A689A4202D93B68002B3DD18B
:1033FC00FB681B685A68FB681B6822F0E0025A6085
:10340C00FB685B68B3F5827F11D1FB689B68B3F5F1
:10341C00004F04D0FB689B68B3F5806F07D1FB6845
:10342C001B681A68FB681B6822F040021A60FB6874
:10343C009B6AB3F5005F0FD1FB681B681A68FB68C9
:10344C001B6822F400521A60FB681B681A68FB6840
:10345C001B6842F400521A60FB68012283F8512069
:10346C00FB68002283F8502003230FE0FB681B68E5
:10347C009A68BB681340BA689A420CBF01230023B8
:10348C00DBB21A46FB799A42A3D1002318461037B7
:10349C00BD4680BD80B586B002AFF860B9607A6079
:1034AC00FB685B68B3F5827F11D1FB689B68B3F551
:1034BC00004F04D0FB689B68B3F5806F07D1FB68A5
:1034CC001B681A68FB681B6822F040021A60FB68D4
:1034DC005B68B3F5827F17D1FB689B68B3F5806F8F
:1034EC0012D17B680093BB6800220121F868FFF7BA
:1034FC0067FF0346002B1AD0FB685B6D43F020027C
:10350C00FB685A65032313E07B680093BB680022B9
:10351C008021F868FFF754FF0346002B07D0FB68A7
:10352C005B6D43F02002FB685A65032300E0002327
:10353C0018461037BD4680BD80B586B002AFF86026
:10354C00B9607A607B680093BB6800228021F868C0
:10355C00FFF736FF0346002B07D0FB685B6D43F08B
:10356C002002FB685A65032300E00023184610373D
:10357C00BD4680BD84B080B483B000AF786007F1E5
:10358C00140080E80E00002318460C37BD4680BCA2
:10359C0004B0704780B485B000AF78604FF43F43FF
:1035AC00FB817B68B3F840309AB2FB8913439AB223
:1035BC007B68A3F84020002318461437BD4680BC16
:1035CC00704780B485B000AF78604FF43F43FB8107
:1035DC007B68B3F840309BB21AB2B7F90E30DB43BC
:1035EC001BB213401BB29AB27B68A3F84020002395
:1035FC0018461437BD4680BC704780B483B000AF0A
:10360C0078600B46FB70002318460C37BD4680BC17
:10361C00704784B080B582B000AF786007F11400B9
:10362C0080E80E007B680122A3F840207B68002212
:10363C00A3F840207B680022A3F844207B6800227A
:10364C00A3F850207868FFF7A5FF00231846083729
:10365C00BD46BDE8804004B07047000090B484B013
:10366C0000AF786039600023FB737A683B681B7885
:10367C009B0013441B889BB223F4EC4323F0700390
:10368C00BB813B68DB78032B19D801A252F823F0DD
:10369C00AD360008C1360008D1360008B736000830
:1036AC00BB8943F40073BB810DE0BB8943F4C06359
:1036BC00BB8108E0BB8943F48063BB8103E0012339
:1036CC00FB7300E000BF7A683B681B789B001A44D0
:1036DC00BB8943F07F4343F47F0343F4004343F03F
:1036EC0080039BB213807A683B681B789B00134461
:1036FC001B889BB223F4E04323F070039AB23B681F
:10370C001B789BB213439CB27A683B681B789B0076
:10371C001A448A4B23439BB213803B681B7B002BC0
:10372C0040F012813B685B78002B67D07C687B682B
:10373C00B3F850309BB21C443B681B781B012344EC
:10374C0003F580631C463B68DB885B089BB25B001F
:10375C009BB223807A683B681B789B0013441B88C0
:10376C009CB2234603F04003002B14D07A683B68CC
:10377C001B789B0013441B889BB223F4E04323F07B
:10378C0070039CB27A683B681B789B001A446C4BA4
:10379C0023439BB213803B68DB78012B18D07A68EB
:1037AC003B681B789B0013441B889BB223F4E043BB
:1037BC0023F040039CB284F020039CB27A683B68EF
:1037CC001B789B001A445D4B23439BB213802BE266
:1037DC007A683B681B789B0013441B889BB223F4CC
:1037EC00E04323F040039CB27A683B681B789B0053
:1037FC001A44524B23439BB2138015E27C687B68BE
:10380C00B3F850309BB21C443B681B781B0123441B
:10381C0003F581631C463B68DB885B089BB25B004D
:10382C009BB223807C687B68B3F850309BB21C44FD
:10383C003B681B781B01234403F20C431C463B687A
:10384C001B69002B0ED123889BB223F4F8439BB247
:10385C00238023889BB26FEA43436FEA53439BB2A6
:10386C0023802DE03B681B693E2B12D83B681B69FB
:10387C005B08BB603B681B6903F00103002B02D0A3
:10388C00BB680133BB60BB689BB29B029BB22380BD
:10389C0016E03B681B695B09BB603B681B6903F066
:1038AC001F03002B02D1BB68013BBB60BB689BB202
:1038BC009B029BB26FEA43436FEA53439BB2238054
:1038CC007A683B681B789B0013441B889CB2234688
:1038DC0003F48043002B14D07A683B681B789B0060
:1038EC0013441B889BB223F4E04323F070039CB277
:1038FC007A683B681B789B001A44124B23439BB29B
:10390C0013807A683B681B789B0013441B889BB21E
:10391C0023F4804323F070039CB284F480539CB254
:10392C0084F400539CB27A683B681B789B001A4461
:10393C00024B23439BB2138076E100BF8080FFFFD4
:10394C00C080FFFF80C0FFFF7A683B681B789B003C
:10395C0013441B889BB223F4E04323F070039CB206
:10396C007A683B681B789B001A44964B23439BB2A6
:10397C0013807C687B68B3F850309BB21C443B6866
:10398C001B781B01234403F580631C463B681B8991
:10399C005B089BB25B009BB223807C687B68B3F8AE
:1039AC0050309BB21C443B681B781B01234403F52D
:1039BC0081631C463B685B895B089BB25B009BB2D6
:1039CC0023803B685B78002B40F088807A683B68EA
:1039DC001B789B0013441B889CB2234603F4804342
:1039EC00002B14D07A683B681B789B0013441B880F
:1039FC009BB223F4E04323F070039CB27A683B68DB
:103A0C001B789B001A44704B23439BB213807A683B
:103A1C003B681B789B0013441B889CB2234603F025
:103A2C004003002B14D07A683B681B789B0013442E
:103A3C001B889BB223F4E04323F070039CB27A689A
:103A4C003B681B789B001A44604B23439BB213804A
:103A5C007A683B681B789B0013441B889BB223F449
:103A6C00E04323F070039CB27A683B681B789B00A0
:103A7C001A44564B23439BB213807A683B681B78DD
:103A8C009B0013441B889BB223F4804323F07003E8
:103A9C009CB284F480539CB284F400539CB27A6838
:103AAC003B681B789B001A44494B23439BB2138001
:103ABC007A683B681B789B0013441B889BB223F4E9
:103ACC00E04323F040039CB27A683B681B789B0070
:103ADC001A443F4B23439BB21380A5E07A683B68A2
:103AEC001B789B0013441B889CB2234603F4804331
:103AFC00002B14D07A683B681B789B0013441B88FE
:103B0C009BB223F4E04323F070039CB27A683B68C9
:103B1C001B789B001A442C4B23439BB213807A686E
:103B2C003B681B789B0013441B889CB2234603F014
:103B3C004003002B14D07A683B681B789B0013441D
:103B4C001B889BB223F4E04323F070039CB27A6889
:103B5C003B681B789B001A441C4B23439BB213807D
:103B6C007A683B681B789B0013441B889BB223F438
:103B7C00E04323F070039CB27A683B681B789B008F
:103B8C001A44114B23439BB213803B68DB78012B07
:103B9C0020D07A683B681B789B0013441B889BB22F
:103BAC0023F4E04323F040039CB284F020039CB246
:103BBC007A683B681B789B001A44054B23439BB2E5
:103BCC0013801CE08081FFFF80C0FFFFC080FFFFDF
:103BDC008080FFFF7A683B681B789B0013441B882E
:103BEC009BB223F4E04323F040039CB27A683B6819
:103BFC001B789B001A440F4B23439BB213807A68AB
:103C0C003B681B789B0013441B889BB223F48043B6
:103C1C0023F070039CB27A683B681B789B001A44B3
:103C2C00044B23439BB21380FB7B18461037BD46D5
:103C3C0090BC70478080FFFF90B482B000AF78607A
:103C4C0039603B681B7B002B71D13B685B78002B88
:103C5C0036D07A683B681B789B0013441B889CB257
:103C6C00234603F04003002B14D07A683B681B7882
:103C7C009B0013441B889BB223F4E04323F0700396
:103C8C009CB27A683B681B789B001A446B4B2343AD
:103C9C009BB213807A683B681B789B0013441B888B
:103CAC009BB223F4E04323F040039CB27A683B6858
:103CBC001B789B001A44624B23439BB2138044E154
:103CCC007A683B681B789B0013441B889CB2234684
:103CDC0003F48043002B14D07A683B681B789B005C
:103CEC0013441B889BB223F4E04323F070039CB273
:103CFC007A683B681B789B001A44524B23439BB257
:103D0C0013807A683B681B789B0013441B889BB21A
:103D1C0023F4804323F070039CB27A683B681B78D1
:103D2C009B001A44464B23439BB213800DE13B6826
:103D3C005B78002B40F088807A683B681B789B008E
:103D4C0013441B889CB2234603F48043002B14D0ED
:103D5C007A683B681B789B0013441B889BB223F446
:103D6C00E04323F070039CB27A683B681B789B009D
:103D7C001A44344B23439BB213807A683B681B78FC
:103D8C009B0013441B889CB2234603F04003002B7A
:103D9C0014D07A683B681B789B0013441B889BB239
:103DAC0023F4E04323F070039CB27A683B681B78E1
:103DBC009B001A44214B23439BB213807A683B68C7
:103DCC001B789B0013441B889BB223F4E04323F025
:103DDC0070039CB27A683B681B789B001A44174BA3
:103DEC0023439BB213807A683B681B789B00134477
:103DFC001B889BB223F4804323F070039CB27A6837
:103E0C003B681B789B001A440D4B23439BB21380D9
:103E1C007A683B681B789B0013441B889BB223F485
:103E2C00E04323F040039CB27A683B681B789B000C
:103E3C001A44034B23439BB2138086E0C080FFFFE0
:103E4C008080FFFF80C0FFFF7A683B681B789B0077
:103E5C0013441B889CB2234603F48043002B14D0DC
:103E6C007A683B681B789B0013441B889BB223F435
:103E7C00E04323F070039CB27A683B681B789B008C
:103E8C001A44354B23439BB213807A683B681B78EA
:103E9C009B0013441B889CB2234603F04003002B69
:103EAC0014D07A683B681B789B0013441B889BB228
:103EBC0023F4E04323F070039CB27A683B681B78D0
:103ECC009B001A44254B23439BB213807A683B68B2
:103EDC001B789B0013441B889BB223F4E04323F014
:103EEC0070039CB27A683B681B789B001A441A4B8F
:103EFC0023439BB213807A683B681B789B00134466
:103F0C001B889BB223F4E04323F040039CB27A68F5
:103F1C003B681B789B001A44114B23439BB21380C4
:103F2C007A683B681B789B0013441B889BB223F474
:103F3C00804323F070039CB27A683B681B789B002B
:103F4C001A44074B23439BB21380002318460837AF
:103F5C00BD4690BC704700BF80C0FFFFC080FFFF14
:103F6C008080FFFF90B58DB000AF786039603B6802
:103F7C005B78012B40F060813B689A693B681B6958
:103F8C009A4209D93B681B69BB623B689A69BB6A58
:103F9C00D21A3B689A6105E03B689B69BB623B683F
:103FAC0000229A613B681B7B002B19D13B68596935
:103FBC003B68DA88BB6A9BB2786800F0A2FB7C682D
:103FCC007B68B3F850309BB21C443B681B781B01D8
:103FDC00234403F204431C46BB6A9BB223800FE1CB
:103FEC007A683B681B789B0013441B889BB203F0D8
:103FFC004003002B65D07C683B685B78002B48D174
:10400C007C687B68B3F850309BB21C443B681B78CF
:10401C001B01234403F20C431C46BB6A002B0ED13C
:10402C0023889BB223F4F8439BB2238023889BB252
:10403C006FEA43436FEA53439BB223803DE0BB6A74
:10404C003E2B10D8BB6A5B087B62BB6A03F0010392
:10405C00002B02D07B6A01337B627B6A9BB29B0292
:10406C009BB2238029E0BB6A5B097B62BB6A03F0CD
:10407C001F03002B02D17B6A013B7B627B6A9BB2E4
:10408C009B029BB26FEA43436FEA53439BB223807C
:10409C0013E03B685B78012B0FD17B68B3F8503091
:1040AC009BB21C443B681B781B01234403F20C435A
:1040BC00FB60BB6A9AB2FB681A803B685B89FB8524
:1040CC0063E03B685B78002B48D17C687B68B3F875
:1040DC0050309BB21C443B681B781B01234403F2F9
:1040EC0004431C46BB6A002B0ED123889BB223F4DD
:1040FC00F8439BB2238023889BB26FEA43436FEA59
:10410C0053439BB223803DE0BB6A3E2B10D8BB6A65
:10411C005B083B62BB6A03F00103002B02D03B6AD5
:10412C0001333B623B6A9BB29B029BB2238029E02A
:10413C00BB6A5B093B62BB6A03F01F03002B02D115
:10414C003B6A013B3B623B6A9BB29B029BB26FEAB0
:10415C0043436FEA53439BB2238013E03B685B7885
:10416C00012B0FD17C687B68B3F850309BB21C4498
:10417C003B681B781B01234403F204431C46BB6AB7
:10418C009BB223803B681B89FB853B685969BB6AE2
:10419C009BB2FA8D786800F0B4FA3B685B78002B20
:1041AC0015D17A683B681B789B0013441B889BB223
:1041BC0023F4E04323F070039CB27A683B681B78CD
:1041CC009B001A449A4B23439BB2138018E03B6824
:1041DC005B78012B14D17A683B681B789B001344E5
:1041EC001B889BB223F4E04323F070039CB27A68E3
:1041FC003B681B789B001A448E4B23439BB2138065
:10420C007A683B681B789B0013441B889BB223F491
:10421C00E04323F040039CB284F010039CB284F082
:10422C0020039CB27A683B681B789B001A44824B33
:10423C0023439BB2138046E13B689A693B681B6938
:10424C009A4209D93B681B69BB623B689A69BB6A95
:10425C00D21A3B689A6105E03B689B69BB623B687C
:10426C0000229A613B681B7B002B48D17C687B68E1
:10427C00B3F850309BB21C443B681B781B012344A1
:10428C0003F20C431C46BB6A002B0ED123889BB255
:10429C0023F4F8439BB2238023889BB26FEA4343F9
:1042AC006FEA53439BB22380F2E0BB6A3E2B10D8DB
:1042BC00BB6A5B08FB61BB6A03F00103002B02D0F5
:1042CC00FB690133FB61FB699BB29B029BB22380B0
:1042DC00DEE0BB6A5B09FB61BB6A03F01F03002BCA
:1042EC0002D1FB69013BFB61FB699BB29B029BB258
:1042FC006FEA43436FEA53439BB22380C8E03B68A9
:10430C005B78002B48D17C687B68B3F850309BB24B
:10431C001C443B681B781B01234403F204431C46DA
:10432C00BB6A002B0ED123889BB223F4F8439BB2BB
:10433C00238023889BB26FEA43436FEA53439BB2BB
:10434C0023803DE0BB6A3E2B10D8BB6A5B08BB6187
:10435C00BB6A03F00103002B02D0BB690133BB61C4
:10436C00BB699BB29B029BB2238029E0BB6A5B09B1
:10437C00BB61BB6A03F01F03002B02D1BB69013B7D
:10438C00BB61BB699BB29B029BB26FEA43436FEA72
:10439C0053439BB2238013E03B685B78012B0FD116
:1043AC007C687B68B3F850309BB21C443B681B782C
:1043BC001B01234403F204431C46BB6A9BB22380BB
:1043CC007C683B685B78002B4ED17C687B68B3F8CB
:1043DC0050309BB21C443B681B781B01234403F2F6
:1043EC000C431C46BB6A002B0ED123889BB223F4D2
:1043FC00F8439BB2238023889BB26FEA43436FEA56
:10440C0053439BB2238043E0BB6A3E2B16D8BB6A56
:10441C005B087B61BB6A03F00103002B02D07B6954
:10442C0001337B617B699BB29B029BB223802FE0A3
:10443C00C080FFFF80C0FFFF8080FFFFBB6A5B096D
:10444C007B61BB6A03F01F03002B02D17B69013B2C
:10445C007B617B699BB29B029BB26FEA43436FEA21
:10446C0053439BB2238013E03B685B78012B0FD145
:10447C007B68B3F850309BB21C443B681B781B0123
:10448C00234403F20C433B61BB6A9AB23B691A802A
:10449C007A683B681B789B0013441B889BB223F4FF
:1044AC00804323F070039CB284F480539CB284F458
:1044BC0000539CB27A683B681B789B001A44044BEF
:1044CC0023439BB21380002318463437BD4690BD5E
:1044DC008080FFFF90B482B000AF786039603B6899
:1044EC005B78002B18D07A683B681B789B001344D0
:1044FC001B889BB223F4E04323F040039CB284F06E
:10450C0010039CB27A683B681B789B001A44114BD1
:10451C0023439BB2138017E07A683B681B789B009F
:10452C0013441B889BB223F4804323F070039CB28A
:10453C0084F480539CB27A683B681B789B001A44C5
:10454C00044B23439BB21380002318460837BD4607
:10455C0090BC70478080FFFF90B482B000AF786051
:10456C0039603B681B7B002B7DD13B685B78002B53
:10457C003DD07A683B681B789B0013441B889CB227
:10458C00234603F04003002B14D07A683B681B7859
:10459C009B0013441B889BB223F4E04323F070036D
:1045AC009CB27A683B681B789B001A44314B2343BE
:1045BC009BB213803B68DB78012B54D07A683B6844
:1045CC001B789B0013441B889BB223F4E04323F01D
:1045DC0040039CB284F020039CB27A683B681B7841
:1045EC009B001A44244B23439BB213803BE07A6814
:1045FC003B681B789B0013441B889CB2234603F436
:10460C008043002B14D07A683B681B789B001344C2
:10461C001B889BB223F4E04323F070039CB27A68AE
:10462C003B681B789B001A44144B23439BB21380AA
:10463C007A683B681B789B0013441B889BB223F45D
:10464C00804323F070039CB284F480539CB284F4B6
:10465C0000539CB27A683B681B789B001A44064B4B
:10466C0023439BB21380002318460837BD4690BCE9
:10467C00704700BFC080FFFF8080FFFF80C0FFFF3E
:10468C0080B483B000AF78600B46FB70FB78002BD6
:10469C0003D17B688022A3F84C20002318460C37EA
:1046AC00BD4680BC704780B483B000AF78600023F7
:1046BC0018460C37BD4680BC704780B483B000AF41
:1046CC007860002318460C37BD4680BC704780B418
:1046DC0085B000AF78607B68B3F844309BB2FB6068
:1046EC00FB6818461437BD4680BC704780B483B055
:1046FC0000AF78603960002318460C37BD4680BC8B
:10470C00704780B48DB000AFF860B96011461A469E
:10471C000B46FB801346BB80BB8801335B083B62B6
:10472C00FB68FB61BB687B62FB885A00FB69134426
:10473C0003F58063BB623B6AFB621EE07B6A1B78FD
:10474C00BB617B6A01337B627B6A1B789BB21B0269
:10475C009BB21A46BB6913437B617B699AB2BB6AF5
:10476C001A80BB6A0233BB62BB6A0233BB627B6AD0
:10477C0001337B62FB6A013BFB62FB6A002BDDD1E0
:10478C0000BF3437BD4680BC704780B48BB000AFDF
:10479C00F860B96011461A460B46FB801346BB8085
:1047AC00BB885B089BB2BB61FB687B61BB68FB6130
:1047BC00FB885A007B69134403F580633B62BB6939
:1047CC007B621BE03B6A1B889BB23B613B6A0233FA
:1047DC003B623B69DAB2FB691A70FB690133FB611E
:1047EC003B691B0ADAB2FB691A70FB690133FB6186
:1047FC003B6A02333B627B6A013B7B627B6A002B28
:10480C00E0D1BB8803F001039BB2002B07D03B6ABD
:10481C001B889BB23B613B69DAB2FB691A7000BF23
:10482C002C37BD4680BC704780B584B000AF786033
:10483C000B46FB700023FB737B681B7C002B15D194
:10484C004FF4007302228121786801F088FE7B68A6
:10485C000122DA624FF4007302220121786801F020
:10486C007EFE7B680122C3F86C2112E040230222F9
:10487C008121786801F073FE7B680122DA624023A3
:10488C0002220121786801F06AFE7B680122C3F8DC
:10489C006C21082303228221786801F060FE7B687A
:1048AC0001221A644FF4077001F07AFF02467B680C
:1048BC00C3F8B8227B68D3F8B832002B02D101239D
:1048CC00FB7326E07B68D3F8B832BB607B68D3F807
:1048DC00BC321B689847BB680022C3F81422BB6823
:1048EC000022C3F818227B681B7C002B09D1BB6803
:1048FC00D3F804224FF400730121786801F019FFFA
:10490C0007E0BB68D3F8042240230121786801F04A
:10491C0010FFFB7B18461037BD4680BD80B584B0B8
:10492C0000AF78600B46FB700023FB738121786825
:10493C0001F03BFE7B680022DA620121786801F00D
:10494C0034FE7B680022C3F86C218221786801F068
:10495C002CFE7B6800221A647B68D3F8B832002BDB
:10496C000ED07B68D3F8BC325B6898477B68D3F871
:10497C00B832184601F020FF7B680022C3F8B82239
:10498C00FB7B18461037BD4680BD80B586B000AFA6
:10499C00786039607B68D3F8B8323B610023FB73D5
:1049AC000023BB810023FB753B681B7803F060037D
:1049BC00002B39D0202B7CD13B68DB88002B29D0F5
:1049CC003B681B785BB2002B11DA7B68D3F8BC32E6
:1049DC009B683A68507839693A68D288984739693F
:1049EC003B68DB881A46786801F0F6F968E03B68AA
:1049FC005A783B6983F800223B68DB88DAB23B6962
:104A0C0083F8012239693B68DB881A46786801F023
:104A1C0011FA55E07B68D3F8BC329B683A68507841
:104A2C000022396898474BE03B685B780A2B17D01B
:104A3C000B2B29D0002B33D17B6893F89C32032BA2
:104A4C0007D107F10C0302221946786801F0C4F96A
:104A5C002EE03968786801F055F90223FB7527E0E0
:104A6C007B6893F89C32032B07D107F10F030122CB
:104A7C001946786801F0B0F91AE03968786801F0E5
:104A8C0041F90223FB7513E07B6893F89C32032BEE
:104A9C000DD03968786801F035F90223FB7506E012
:104AAC003968786801F02EF90223FB7500E000BF2D
:104ABC0006E03968786801F025F90223FB7500BF20
:104ACC00FB7D18461837BD4680BD80B584B000AF5D
:104ADC0078600B46FB707B68D3F8B832FB607B6860
:104AEC00D3F8C032BB607B68D3F8B832002B37D018
:104AFC00FA78796813469B0013449B000B441C33D3
:104B0C001B68002B26D0FA78796813469B00134457
:104B1C009B000B441C331B68FA78B96852010A4499
:104B2C0038321268B3FBF2F102FB01F29B1A002B34
:104B3C0010D1FA78796813469B0013449B000B4400
:104B4C001C3300221A60F97800230022786801F0E7
:104B5C00CDFD03E0FB680022C3F81422002300E023
:104B6C00022318461037BD4680BD80B584B000AF17
:104B7C0078600B46FB707B68D3F8B832FB60FB782F
:104B8C001946786801F0F8FD0246FB68C3F80C2260
:104B9C007B68D3F8B832002B0DD07B68D3F8BC32CD
:104BAC00DB68FA68D2F80402FA6802F5037211465F
:104BBC009847002300E0022318461037BD4680BDFD
:104BCC0080B584B000AF78607B68D3F8B832FB60F6
:104BDC007B68D3F8BC32002B15D0FB6893F80032FD
:104BEC00FF2B10D07B68D3F8BC329B68FA6892F824
:104BFC000002F968FA6892F8012292B29847FB68B1
:104C0C00FF2283F80022002318461037BD4680BDD2
:104C1C0080B483B000AF78607B6843221A80034B6A
:104C2C0018460C37BD4680BC704700BF9C00002066
:104C3C0080B483B000AF78607B6843221A80034B4A
:104C4C0018460C37BD4680BC704700BF580000208A
:104C5C0080B483B000AF78607B6843221A80034B2A
:104C6C0018460C37BD4680BC704700BFE0000020E2
:104C7C0080B483B000AF78607B680A221A80034B43
:104C8C0018460C37BD4680BC704700BF140000208E
:104C9C0080B485B000AF786039600223FB733B6849
:104CAC00002B05D07B683A68C3F8BC220023FB7349
:104CBC00FB7B18461437BD4680BC704780B487B068
:104CCC0000AFF860B9601346FB80FB68D3F8B832CC
:104CDC007B617B69BA68C3F80822FA887B69C3F8E0
:104CEC001022002318461C37BD4680BC704780B488
:104CFC0085B000AF786039607B68D3F8B832FB6060
:104D0C00FB683A68C3F80422002318461437BD46E2
:104D1C0080BC704780B584B000AF78607B68D3F8F6
:104D2C00B832FB607B68D3F8B832002B1CD0FB6820
:104D3C00D3F81432002B15D1FB680122C3F81422CE
:104D4C00FB68D3F810227B681A63FB68D3F808223F
:104D5C00FB68D3F810329BB28121786801F0C6FC55
:104D6C00002302E0012300E0022318461037BD4661
:104D7C0080BD80B584B000AF78607B68D3F8B83262
:104D8C00FB607B68D3F8B832002B17D07B681B7C98
:104D9C00002B09D1FB68D3F804224FF400730121D6
:104DAC00786801F0C6FC07E0FB68D3F804224023C6
:104DBC000121786801F0BDFC002300E002231846B5
:104DCC001037BD4680BD80B584B000AFF860B960C7
:104DDC001346FB71FB68002B01D102231AE0FB6820
:104DEC00D3F8B432002B03D0FB680022C3F8B422F2
:104DFC00BB68002B03D0FB68BA68C3F8B022FB6811
:104E0C00012283F89C22FB68FA791A70F86801F089
:104E1C0031FB002318461037BD4680BD80B485B0E9
:104E2C0000AF786039600023FB733B68002B06D021
:104E3C007B683A68C3F8B4220023FB7301E00223B9
:104E4C00FB73FB7B18461437BD4680BC704780B59E
:104E5C0082B000AF7860786801F066FB00231846DA
:104E6C000837BD4680BD80B483B000AF78600023A6
:104E7C0018460C37BD4680BC704780B584B000AF77
:104E8C0078600B46FB700223FB737B68D3F8B4325B
:104E9C00002B0CD07B68D3F8B4321B68FA7811461F
:104EAC00786898470346002B01D10023FB73FB7BEA
:104EBC0018461037BD4680BD80B582B000AF786013
:104ECC000B46FB707B68D3F8B4325B68FA781146FA
:104EDC0078689847002318460837BD4680BD80B5D2
:104EEC0082B000AF786039607B6803F52A7339684B
:104EFC00184600F0CBFE7B680122C3F894227B6835
:104F0C00B3F8AE321A467B68C3F898227B6893F8E4
:104F1C00A83203F01F03012B0CD0012B02D3022B60
:104F2C0010D017E07B6803F52A731946786800F0F7
:104F3C00CBF91AE07B6803F52A731946786800F000
:104F4C002DFA12E07B6803F52A731946786800F095
:104F5C006BFA0AE07B6893F8A83223F07F03DBB28C
:104F6C001946786801F040FB00BF0023184608374B
:104F7C00BD4680BD80B586B000AFF8600B467A6048
:104F8C00FB72FB7A002B4BD1FB6803F5AA737B6198
:104F9C00FB68D3F89432032B34D17B69DA687B69D4
:104FAC001B699A4219D97B69DA687B691B69D21A29
:104FBC007B69DA607B69DA687B691B699A4203D288
:104FCC007B69DB689BB202E07B691B699BB21A466A
:104FDC007968F86800F04CFF38E0FB68D3F8B4321D
:104FEC001B69002B0AD0FB6893F89C32032B05D16C
:104FFC00FB68D3F8B4321B69F8689847F86800F07E
:10500C0049FF23E0FB68D3F89432052B1ED1FB68D3
:10501C000022C3F894220021F86801F0E5FA15E0AB
:10502C00FB68D3F8B4329B69002B0DD0FB6893F866
:10503C009C32032B08D1FB68D3F8B4329B69FA7A03
:10504C001146F868984701E0022300E00023184657
:10505C001837BD4680BD80B586B000AFF8600B46F2
:10506C007A60FB72FB7A002B7FD1FB6814337B6177
:10507C00FB68D3F89432022B5CD17B69DA687B69CC
:10508C001B699A4215D97B69DA687B691B69D21A4C
:10509C007B69DA607B69DB689BB21A467968F868D1
:1050AC0000F0B6FE002300220021F86801F041FB5D
:1050BC004EE07B699B687A691269B3FBF2F102FBE3
:1050CC0001F29B1A002B1CD17B699A687B691B69C6
:1050DC009A4216D37B699A68FB68D3F898329A4245
:1050EC000FD200220021F86800F092FEFB6800222B
:1050FC00C3F89822002300220021F86801F019FB64
:10510C0026E0FB68D3F8B432DB68002B0AD0FB68CE
:10511C0093F89C32032B05D1FB68D3F8B432DB68CF
:10512C00F86898478021F86801F05EFAF86800F09A
:10513C00C4FE0DE0FB68D3F89432042B04D0FB685A
:10514C00D3F89432002B03D18021F86801F04CFA8B
:10515C00FB6893F8A032012B1DD1F868FFF783FE92
:10516C00FB68002283F8A02215E0FB68D3F8B43268
:10517C005B69002B0DD0FB6893F89C32032B08D194
:10518C00FB68D3F8B4325B69FA7A1146F868984731
:10519C0001E0022300E0002318461837BD4680BD0D
:1051AC0080B582B000AF786040230022002178687F
:1051BC0001F0D5F97B680122C3F858217B684022A5
:1051CC00C3F86421402300228021786801F0C7F9DC
:1051DC007B6801229A617B6840225A627B680122BB
:1051EC0083F89C227B680022C3F894227B680022FF
:1051FC005A607B680022C3F8A4227B68D3F8B832CB
:10520C00002B09D07B68D3F8B4325B687A6852689B
:10521C00D2B2114678689847002318460837BD4625
:10522C0080BD80B483B000AF78600B46FB707B68A8
:10523C00FA781A74002318460C37BD4680BC7047A8
:10524C0080B483B000AF78607B6893F89C227B6855
:10525C0083F89D227B68042283F89C220023184645
:10526C000C37BD4680BC704780B483B000AF78600B
:10527C007B6893F89C32042B05D17B6893F89D22B4
:10528C007B6883F89C22002318460C37BD4680BCF3
:10529C00704780B582B000AF78607B6893F89C3221
:1052AC00032B0BD17B68D3F8B432DB69002B05D010
:1052BC007B68D3F8B432DB697868984700231846CA
:1052CC000837BD4680BD000080B584B000AF786063
:1052DC0039600023FB733B681B7803F06003202BC1
:1052EC0004D0402B02D0002B08D04CE07B68D3F8C4
:1052FC00B4329B6839687868984749E03B685B78BA
:10530C00092B3AD801A252F823F000BF69530008C8
:10531C007D53000887530008735300088753000817
:10532C004B53000841530008875300085F53000893
:10533C00555300083968786800F0D4F922E03968D0
:10534C00786800F037FB1DE03968786800F074FB72
:10535C0018E03968786800F0FDFB13E0396878686C
:10536C0000F02CFC0EE03968786800F05AFC09E07B
:10537C003968786800F069FC04E03968786800F0F6
:10538C00C1FC00BF04E03968786800F0BBFC00BFCA
:10539C00FB7B18461037BD4680BD00BF80B584B07E
:1053AC0000AF786039600023FB733B681B7803F017
:1053BC006003202B03D0402B01D0002B2AD17B681B
:1053CC0093F89C32013B022B1DD83B689B88DBB2C7
:1053DC00012B13D87B68D3F8B4329B683968786892
:1053EC0098470346FB733B68DB88002B10D1FB7B93
:1053FC00002B0DD1786800F04DFD09E03968786814
:10540C0000F080FC04E03968786800F07BFC00E078
:10541C0000BF04E03968786800F074FC00BF00231A
:10542C0018461037BD4680BD80B584B000AF78609B
:10543C0039600023FB733B689B88BB733B681B780C
:10544C0003F06003202B04D0402B02D0002B08D09B
:10545C003DE17B68D3F8B4329B683968786898472B
:10546C003AE13B681B7803F06003202B0AD17B6880
:10547C00D3F8B4329B683968786898470346FB7355
:10548C00FB7B2AE13B685B78012B3ED0032B02D0DF
:10549C00002B70D015E17B6893F89C32022B02D064
:1054AC00032B15D02BE0BB7B002B0CD0BB7B802BB4
:1054BC0009D0BB7B1946786801F096F88021786892
:1054CC0001F092F820E03968786800F01BFC1BE0D2
:1054DC003B685B88002B0ED1BB7B002B0BD0BB7BBE
:1054EC00802B08D03B68DB88002B04D1BB7B194692
:1054FC00786801F079F8786800F0CCFC04E0396841
:10550C00786800F0FFFB00BFE0E07B6893F89C320A
:10551C00022B02D0032B15D026E0BB7B002B0CD02A
:10552C00BB7B802B09D0BB7B1946786801F05CF8FB
:10553C008021786801F058F81CE03968786800F030
:10554C00E1FB17E03B685B88002B12D1BB7B03F0BF
:10555C007F03002B04D0BB7B1946786801F063F8FD
:10556C00786800F097FC04E03968786800F0CAFBB2
:10557C0000E000BFAAE07B6893F89C32022B02D0BB
:10558C00032B32D097E0BB7B002B07D0BB7B802B4F
:10559C0004D03968786800F0B5FB91E097F90E30CB
:1055AC00002B0BDABB7B03F07F0213469B001344EA
:1055BC009B0010337A68134404330BE0BB7B03F07D
:1055CC007F0213469B0013449B0003F5A8737A6873
:1055DC0013440433BB60BB6800221A60BB68022210
:1055EC001946786800F0F8FB6AE097F90E30002B4A
:1055FC0011DABB7B03F00F02796813469B0013444E
:10560C009B000B4418331B68002B17D13968786842
:10561C0000F078FB54E0BB7B03F00F027968134673
:10562C009B0013449B000B4403F5AC731B68002BCD
:10563C0004D13968786800F065FB41E097F90E30C9
:10564C00002B0BDABB7B03F07F0213469B00134449
:10565C009B0010337A68134404330BE0BB7B03F0DC
:10566C007F0213469B0013449B0003F5A8737A68D2
:10567C0013440433BB60BB7B002B02D0BB7B802B61
:10568C0003D1BB6800221A600EE0BB7B1946786818
:10569C0000F0E8FF0346002B03D0BB6801221A6020
:1056AC0002E0BB6800221A60BB68022219467868C7
:1056BC0000F092FB04E03968786800F023FB00BF2F
:1056CC0004E03968786800F01DFB00BF04E039681D
:1056DC00786800F017FB00BFFB7B18461037BD46FF
:1056EC0080BD000080B584B000AF786039600023C5
:1056FC003B810023FB600023FB723B685B881B0A29
:10570C009BB2013B062B00F2288101A252F823F038
:10571C00395700085157000891570008675900087D
:10572C006759000807590008335900087B68D3F8FB
:10573C00B0321B687A68127C07F108011046984752
:10574C00F86012E17B681B7C002B0DD17B68D3F8D1
:10575C00B4329B6A07F1080210469847F860FB6860
:10576C00013302221A7000E17B68D3F8B432DB6A91
:10577C0007F1080210469847F860FB6801330222D3
:10578C001A70F2E03B685B88DBB2052B00F2AC8050
:10579C0001A252F823F000BFBD570008F1570008D2
:1057AC0025580008595800088D580008C1580008A1
:1057BC007B68D3F8B0325B68002B0BD07B68D3F8D6
:1057CC00B0325B687A68127C07F108011046984782
:1057DC00F86091E03968786800F094FAFB7A01334C
:1057EC00FB7289E07B68D3F8B0329B68002B0BD03E
:1057FC007B68D3F8B0329B687A68127C07F1080199
:10580C0010469847F86077E03968786800F07AFAC3
:10581C00FB7A0133FB726FE07B68D3F8B032DB6844
:10582C00002B0BD07B68D3F8B032DB687A68127C23
:10583C0007F1080110469847F8605DE03968786810
:10584C0000F060FAFB7A0133FB7255E07B68D3F809
:10585C00B0321B69002B0BD07B68D3F8B0321B69BC
:10586C007A68127C07F1080110469847F86043E00B
:10587C003968786800F046FAFB7A0133FB723BE03A
:10588C007B68D3F8B0325B69002B0BD07B68D3F804
:10589C00B0325B697A68127C07F1080110469847B0
:1058AC00F86029E03968786800F02CFAFB7A01334B
:1058BC00FB7221E07B68D3F8B0329B69002B0BD0D4
:1058CC007B68D3F8B0329B697A68127C07F10801C7
:1058DC0010469847F8600FE03968786800F012FAC3
:1058EC00FB7A0133FB7207E03968786800F00AFA3A
:1058FC00FB7A0133FB7238E037E07B681B7C002BB2
:10590C0009D17B68D3F8B4325B6B07F108021046FF
:10591C009847F86029E03968786800F0F3F9FB7A69
:10592C000133FB7221E07B681B7C002B0DD17B6863
:10593C00D3F8B4321B6B07F1080210469847F86095
:10594C00FB68013307221A700FE03968786800F0A1
:10595C00D9F9FB7A0133FB7207E03968786800F0FB
:10596C00D1F9FB7A0133FB7200BFFB7A002B1CD1FF
:10597C003B89002B11D03B68DB88002B0DD03B689A
:10598C00DA883B89934228BF13469BB23B813B8903
:10599C001A46F968786800F01FFA3B68DB88002B20
:1059AC0004D1786800F076FA00E000BF1037BD46ED
:1059BC0080BD00BF80B584B000AF786039603B68B3
:1059CC009B88002B30D13B68DB88002B2CD13B68AB
:1059DC005B887F2B28D83B685B88DBB203F07F03A6
:1059EC00FB737B6893F89C32032B04D1396878687D
:1059FC0000F088F91CE07B68FA7B83F89E22FB7B25
:105A0C001946786800F053FE786800F043FAFB7B87
:105A1C00002B04D07B68022283F89C2208E07B6870
:105A2C00012283F89C2203E03968786800F06AF957
:105A3C0000BF1037BD4680BD80B582B000AF786026
:105A4C0039603B685B88DAB2414B1A70404B1B786B
:105A5C00012B04D93968786800F054F975E07B683B
:105A6C0093F89C32022B02D0032B23D062E0384BEC
:105A7C001B78002B1AD0364B1B781A467B685A6061
:105A8C007B68032283F89C22314B1B78194678687B
:105A9C00FFF7F3F90346022B04D13968786800F05C
:105AAC0031F952E0786800F0F5F94EE0786800F0D2
:105ABC00F1F94AE0264B1B78002B12D17B680222AD
:105ACC0083F89C22224B1B781A467B685A60204B29
