:020000040800F2
:10000000005000208D100008BD0F0008C90F000827
:10001000CF0F0008D50F0008DB0F0008000000001C
:10002000000000000000000000000000E10F0008D8
:10003000ED0F000800000000F90F0008051000088F
:10004000D5100008D5100008D5100008D5100008FC
:10005000D5100008D5100008D5100008D5100008EC
:10006000D5100008D5100008D5100008D5100008DC
:10007000D5100008D5100008D5100008D5100008CC
:10008000D5100008D5100008D5100008D5100008BC
:1000900011100008D5100008D5100008D510000870
:1000A000D5100008D5100008D5100008D51000089C
:1000B000D5100008D5100008D5100008D51000088C
:1000C000D5100008D5100008D5100008D51000087C
:1000D000D5100008D5100008D5100008D51000086C
:1000E000D5100008D5100008D51000080000000049
:1000F0000000000000000000000000000000000000
:0C01000000000000000000005FF808F1A3
:10010C0010B5054C237833B9044B13B10448AFF345
:10011C0000800123237010BD880100200000000026
:10012C006884000808B5034B1BB103490348AFF3BF
:10013C00008008BD000000008C01002068840008CD
:10014C0080B400AF144BDB68134A23F08073D36088
:10015C00114BDB68104A43F08073D3600F4B1B6864
:10016C000E4A23F0010313600C4B1B680B4A43F03F
:10017C0001031360094B00225A6000BF00BF00BF8F
:10018C00064B5B68002B01D0002300E001231846CE
:10019C00BD4680BC704700BFF0ED00E0001000E0F1
:1001AC0080B485B000AFB9607B600346FB81134619
:1001BC00BB810B4AFB8913800A4ABB8913800A4A0C
:1001CC003B8B1380094ABB681360094A7B68136038
:1001DC00084AFB69136000BF1437BD4680BC7047EA
:1001EC000C050020F8040020040500200805002060
:1001FC0000050020FC04002080B582B000AF03464F
:10020C00FB71144B1868144B1988FB7903F0040329
:10021C00DBB21A4601F05DFA104B1868104B1988C6
:10022C00FB7903F00203DBB21A4601F052FA0D4BD4
:10023C0018680D4B1988FB7903F00103DBB21A46E1
:10024C0001F047FA094AFB79137000BF0837BD4625
:10025C0080BD00BF080500200C0500200005002013
:10026C00F8040020FC04002004050020A401002058
:10027C0080B500AF0020FFF7BFFF00BF80BD0000BE
:10028C0080B582B000AF0346FB71074B1B78002B87
:10029C0004D1FB791846FFF7AFFF01E0FFF7E8FF49
:1002AC0000BF0837BD4680BDA401002090B593B0B7
:1002BC0012AF00F00BFF00F063F800F0F3F800F061
:1002CC00BBF807F0E3FBFFF73BFF254B0193022341
:1002DC000093234B4FF4806221494FF40060FFF7E9
:1002EC005FFF0420FFF788FF1E4B00221A701E4B85
:1002FC0000221A601D4B00221A701D4B01221A702D
:10030C001C4C684604F110034822194608F092F878
:10031C0094E80F0000F0D0FA174B1B780322002151
:10032C005C2000F0E1FA154B00221A700D4B0122F3
:10033C001A70FFF79DFF0E4B1B78002B03D0022089
:10034C00FFF75AFF02E00320FFF756FF00F084F995
:10035C0000F038F900F0FAF900F05AF9EBE700BFB9
:10036C00000C0140C8010020CC020020D00200206B
:10037C00D10200208805002000000020CA010020C6
:10038C0080B594B000AF07F128032822002118464D
:10039C0008F05BF807F1140300221A605A609A60A7
:1003AC00DA601A613B1D00221A605A609A60DA60AA
:1003BC000123BB624FF48033FB6200233B630123B8
:1003CC00BB6302237B644FF48033BB644FF4801314
:1003DC00FB6407F12803184602F030FD0346002B9E
:1003EC0001D000F041FA0F237B610223BB61002393
:1003FC00FB614FF480633B6200237B6207F11403C3
:10040C000121184602F09AFF0346002B01D000F0A0
:10041C002BFA10237B604FF480033B613B1D184685
:10042C0003F000F90346002B01D000F01DFA00BFC9
:10043C005037BD4680BD000080B500AF174B184A41
:10044C001A60164B4FF482725A60144B00229A6059
:10045C00124B0022DA60114B00221A610F4B002262
:10046C005A610E4B4FF400729A610C4B1022DA61F8
:10047C000A4B00221A62094B00225A62074B0022D7
:10048C009A62064B0A22DA62044803F081F90346A9
:10049C00002B01D000F0E8F900BF80BD88050020DA
:1004AC000030014080B588B000AF07F11003002286
:1004BC001A605A609A60DA603E4B9B693D4A43F081
:1004CC00100393613B4B9B6903F01003FB60FB68CB
:1004DC00384B9B69374A43F020039361354B9B693A
:1004EC0003F02003BB60BB68324B9B69314A43F07D
:1004FC00040393612F4B9B6903F004037B607B68BF
:10050C002C4B9B692B4A43F008039361294B9B6945
:10051C0003F008033B603B6800224FF4005126486F
:10052C0001F0D7F800221821244801F0D2F800225B
:10053C0040F60271224801F0CCF84FF400533B61B5
:10054C0001237B610023BB610223FB6107F11003D4
:10055C001946194800F04CFF18233B6101237B61BD
:10056C000023BB610223FB6107F1100319461348FA
:10057C0000F03EFF01233B6100237B610023BB6144
:10058C0007F1100319460E4800F032FF40F60273D3
:10059C003B6101237B610023BB610223FB6107F1FB
:1005AC0010031946064800F023FF00BF2037BD4654
:1005BC0080BD00BF00100240001001400008014047
:1005CC00000C014080B500AF4FF400510A4801F017
:1005DC0098F80A4B1B78002B0BD00121084801F02E
:1005EC0061F80346002B04D1064A0749074800F07E
:1005FC00ABFB00BF80BD00BF00100140C801002054
:10060C00000C0140CA010020C9010020680500202F
:10061C0080B500AF0D4B1B78002B15D00B4B002277
:10062C001A700B4B1B78002B0ED00120FFF7E4FD4A
:10063C00074B1B789BB21946064807F0F9FA0520C0
:10064C0000F0A6FDFFF714FE00BF80BDCA0100201C
:10065C00C90100206805002080B584B000AF364B7E
:10066C001B78012B65D1354B1B78002B61D1324B9C
:10067C0000221A70324B1B68013B324AD35C7B6000
:10068C0000231A467B68934253D12F4B1B78002BC7
:10069C0003D02A4B01221A704BE0294B1B68042B08
:1006AC0017DD0023FB600EE0254B1B681A1FFB684F
:1006BC001344244AD15C234AFB6813440A461A703B
:1006CC00FB680133FB60FB68032BEDDD1C4B042244
:1006DC001A601C4B1B78522B25D11A4B5B78442B80
:1006EC0021D1184B9B78592B1DD1154B1B689BB2F4
:1006FC001946144807F09CFA052000F049FDFFF755
:10070C00B7FD0023BB6008E00520FFF7B9FD3C20D6
:10071C0000F03EFDBB680133BB60BB68042BF3DD0E
:10072C00094B01221A70064B00221A60034B00225F
:10073C001A701037BD4680BDD2020020D0020020B6
:10074C00CC020020CC010020D102002080B584B066
:10075C0000AF244B1B78002B3FD0234B1B78002B76
:10076C003BD0224B1B68BB60204B00221A6000233D
:10077C00FB6028E00620FFF783FDBA68FB68D31AFC
:10078C007B607B681F2B12D8FB68194A13447A686C
:10079C00D2B21146184600F02DF8012000F0F8FCFA
:1007AC0000F052F8FA687B681344FB600BE0FB68BE
:1007BC000F4A13442021184600F01CF800F044F8AE
:1007CC00FB682033FB60FA68BB689A42D2D3064BB5
:1007DC0000221A70FFF74CFD00E000BF1037BD4639
:1007EC0080BD00BFD1020020D0020020CC0200202E
:1007FC00CC01002080B584B000AF78600B46FB7054
:10080C000023FB730023BB600EE0BB687A681344C3
:10081C0019780C4ABB6813440A461A70FB7B0133E7
:10082C00FB73BB680133BB60FB78BA689A42ECDBA4
:10083C00FB7B1946034800F0F5FA00BF1037BD46A4
:10084C0080BD00BFA801002080B500AF00BF012112
:10085C00044800F027FF0346002BF8D1FFF7B2FE47
:10086C0000BF80BD000C014080B400AF00BFBD468E
:10087C0080BC704780B584B000AF78600C4B5B686F
:10088C00FB6002F0A7FE02460A4BA3FB02239B0C63
:10089C007A6802FB03F37B6000BF054B5A68FB6868
:1008AC00D21A7B689A42F8D300BF1037BD4680BD80
:1008BC00001000E083DE1B4384B080B500AF07F16D
:1008CC00080C8CE80F00074B184607F10801582359
:1008DC001A4607F0AFFD00BFBD46BDE8804004B02E
:1008EC00704700BF1005002090B587B000AF0446DC
:1008FC00084611461A462346FB710346BB710B464C
:10090C007B7113463B710323BB7501233B753F235E
:10091C00BB7400233B747023FB73654A3B791370E3
:10092C00142000F035FC634B00221A70624B00223D
:10093C001A70624B00221A7001221021604800F0DC
:10094C00C8FE002208215E4800F0C3FE07F1160322
:10095C001946032000F0B8F807F1140319460220D9
:10096C0000F0B2F8524B1B78002B18D03F237B754C
:10097C001A23FB7404237B7407F115031946012019
:10098C0000F0A2F807F113031946042000F09CF8BC
:10099C0007F1110319461D2000F096F817E000230B
:1009AC007B750023FB7405237B7407F11503194633
:1009BC00012000F089F807F113031946042000F018
:1009CC0083F807F1110319461D2000F07DF8FB1D7B
:1009DC001946052000F078F80123FB757B79032B71
:1009EC0027D801A252F823F0050A0008110A0008C2
:1009FC001D0A0008330A0008FB7D23F00603DBB256
:100A0C00FB7517E0FB7D43F00203DBB2FB7511E0D5
:100A1C00FB7D23F00203DBB2FB75FB7D43F004038B
:100A2C00DBB2FB7506E0FB7D43F00603DBB2FB7526
:100A3C0000E000BFBB79002B02D0012B03D008E0F3
:100A4C00FB7DFB7505E0FB7D43F00803DBB2FB751A
:100A5C0000BF07F117031946062000F035F80522F0
:100A6C001849102000F05CF8052216490A2000F005
:100A7C0057F807F1120319461C2000F025F807F16E
:100A8C0010031946E12000F09FF807F110031946F6
:100A9C00E22000F099F807F10F031946072000F047
:100AAC0013F800F02FF900BF1C37BD4690BD00BFF6
:100ABC00D6020020D3020020D4020020D502002050
:100ACC00000801400400002080B584B000AF03464C
:100ADC003960FB710123FB81FB792033DBB2FB71A5
:100AEC00002210210C4800F0F4FDF91D4FF0FF33EB
:100AFC0001220A4802F0D0FEFA894FF0FF33396820
:100B0C00064802F0C9FE01221021034800F0E1FD65
:100B1C0000BF1037BD4680BD000801401005002005
:100B2C0080B582B000AF03463960FB711346BB80C1
:100B3C00FB792033DBB2FB71002210210C4800F052
:100B4C00C8FDF91D4FF0FF3301220A4802F0A4FE44
:100B5C00BA884FF0FF333968064802F09DFE012237
:100B6C001021034800F0B5FD00BF0837BD4680BD1D
:100B7C00000801401005002080B582B000AF03468C
:100B8C003960FB711346BB80002210210C4800F029
:100B9C00A0FDF91D4FF0FF3301220A4802F07CFE44
:100BAC00BA884FF0FF333968064802F075FE01220F
:100BBC001021034800F08DFD00BF0837BD4680BDF5
:100BCC00000801401005002080B584B000AF03463A
:100BDC003960FB710123FB81002210210C4800F0CD
:100BEC0078FDF91D4FF0FF3301220A4802F054FE44
:100BFC00FA894FF0FF333968064802F04DFE0122A6
:100C0C001021034800F065FD00BF1037BD4680BDC4
:100C1C00000801401005002080B584B000AF0346E9
:100C2C00FB710023FB73002210210E4800F051FDD4
:100C3C00F91D4FF0FF3301220B4802F02DFE07F196
:100C4C000F014FF0FF330122074802F061FF012230
:100C5C001021044800F03DFDFB7B18461037BD46C3
:100C6C0080BD00BF000801401005002080B584B095
:100C7C0002AF0023FB71FF23BB71002210210B4834
:100C8C0000F027FDFA1DB91D4FF0FF33009301232F
:100C9C00074803F04EF801221021044800F019FD1A
:100CAC00FB7918460837BD4680BD00BF00080140DF
:100CBC001005002080B582B000AF03463960FB718F
:100CCC001346BB80002210210C4800F002FDF91DD8
:100CDC004FF0FF3301220A4802F0DEFDBA884FF0D4
:100CEC00FF333968064802F013FF01221021034834
:100CFC0000F0EFFC00BF0837BD4680BD0008014086
:100D0C001005002080B582B000AF052000F040FA3D
:100D1C000B4B00221A701F23FB710022082109487B
:100D2C0000F0D7FCFB1D19460020FFF7CDFE012279
:100D3C000821044800F0CDFC00BF0837BD4680BD3B
:100D4C00D50200200008014080B586B000AFF860E5
:100D5C00B9607A604FF4C870FFF78CFDFFF786FF1F
:100D6C0003461A462B4B1A702A4B1B7803F0400390
:100D7C00002B1FD0284B01221A706020FFF74CFF6C
:100D8C0003461A46BB681A70BB681B789BB21A469E
:100D9C00F9686120FFF78EFFBB681B78202B02D906
:100DAC00BB6800221A700021E220FFF70DFF7B6860
:100DBC0001221A70174B1B7803F02003002B0BD069
:100DCC00164B01221A700021E120FFF7FDFE4FF4B3
:100DDC008071134800F095FC0E4B1B7803F0100348
:100DEC00002B08D00021E120FFF7EEFE4FF400713C
:100DFC000B4800F086FCFFF785FF7023FB7507F1AD
:100E0C00170319460720FFF75FFE00BF1837BD46D2
:100E1C0080BD00BFD3020020D5020020D4020020E8
:100E2C00000C014080B584B000AF78600B46FB70BD
:100E3C001E4B00221A70002208211D4800F049FCAC
:100E4C000E23FB731B4B1B78002B04D1FB7B43F055
:100E5C001003DBB2FB7307F10F0319460020FFF7F9
:100E6C0033FE144B1B78002B07D0FB789BB21A4631
:100E7C007968A020FFF780FE06E0FB789BB21A464B
:100E8C007968B020FFF778FE01220821084800F0AD
:100E9C0020FC0F20FFF7EEFC00220821044800F094
:100EAC0018FC00BF1037BD4680BD00BFD402002027
:100EBC0000080140D602002080B485B000AF154B6D
:100ECC009B69144A43F001039361124B9B6903F035
:100EDC000103BB60BB680F4BDB690E4A43F08053C8
:100EEC00D3610C4BDB6903F080537B607B680A4B4E
:100EFC005B68FB60FB6823F0E063FB60FB6843F01E
:100F0C000073FB60044AFB68536000BF1437BD4696
:100F1C0080BC7047001002400000014080B588B0D2
:100F2C0000AF786007F1100300221A605A609A60D3
:100F3C00DA607B681B681B4A93422FD11A4B9B6962
:100F4C00194A43F480539361174B9B6903F4805304
:100F5C00FB60FB68144B9B69134A43F004039361D9
:100F6C00114B9B6903F00403BB60BB68A0233B617E
:100F7C0002237B610323FB6107F1100319460B4825
:100F8C0000F036FA40233B6100237B610023BB61F8
:100F9C0007F110031946054800F02AFA00BF203764
:100FAC00BD4680BD003001400010024000080140E9
:100FBC0080B400AF00BFBD4680BC704780B400AFAA
:100FCC00FEE780B400AFFEE780B400AFFEE780B46C
:100FDC0000AFFEE780B400AF00BFBD4680BC7047D9
:100FEC0080B400AF00BFBD4680BC704780B400AF7A
:100FFC0000BFBD4680BC704780B500AF00F0ACF8B8
:10100C0000BF80BD80B500AF024800F0C4FC00BF3B
:10101C0080BD00BF7812002080B400AF154B1B6858
:10102C00144A43F001031360124B5A681149124BD6
:10103C0013404B600F4B1B680E4A23F0847323F450
:10104C00803313600B4B1B680A4A23F48023136014
:10105C00084B5B68074A23F4FE035360054B4FF4BF
:10106C001F029A60054B4FF000629A6000BFBD46AC
:10107C0080BC7047001002400000FFF800ED00E05B
:10108C00002103E00B4B5B58435004310A480B4BD7
:10109C0042189A42F6D30A4A02E0002342F8043B73
:1010AC00084B9A42F9D3FFF7B7FF07F09FF9FFF708
:1010BC00FDF87047EC840008000000208801002037
:1010CC008801002064150020FEE7000080B500AF09
:1010DC00084B1B68074A43F010031360032000F011
:1010EC0045F9002000F008F8FFF7E6FE002318464B
:1010FC0080BD00BF0020024080B582B000AF786098
:10110C00124B1A68124B1B7819464FF47A73B3FBC7
:10111C00F1F3B2FBF3F3184600F05DF90346002B34
:10112C0001D001230EE07B680F2B0AD800227968CE
:10113C004FF0FF3000F025F9064A7B68136000235E
:10114C0000E0012318460837BD4680BD0C00002086
:10115C00140000201000002080B400AF054B1B7859
:10116C001A46054B1B681344034A136000BFBD4667
:10117C0080BC704714000020E005002080B400AF54
:10118C00024B1B681846BD4680BC7047E00500202A
:10119C0080B584B000AF7860FFF7F0FFB8607B6873
:1011AC00FB60FB68B3F1FF3F05D0094B1B781A4677
:1011BC00FB681344FB6000BFFFF7E0FF0246BB680F
:1011CC00D31AFA689A42F7D800BF1037BD4680BDD3
:1011DC001400002080B485B000AF78607B6803F009
:1011EC000703FB600C4BDB68BB60BA684FF6FF0370
:1011FC001340BB60FB681A02BB68134343F0BF6328
:10120C0043F40033BB60044ABB68D36000BF14379F
:10121C00BD4680BC704700BF00ED00E080B400AF5D
:10122C00044BDB681B0A03F007031846BD4680BC61
:10123C00704700BF00ED00E080B483B000AF034600
:10124C00FB7197F90730002B0BDBFB7903F01F02C6
:10125C00064997F907305B09012000FA02F241F8C0
:10126C00232000BF0C37BD4680BC704700E100E076
:10127C0080B483B000AF03463960FB7197F9073037
:10128C00002B0ADB3B68DAB20C4997F907301201E4
:10129C00D2B20B4483F800230AE03B68DAB2084967
:1012AC00FB7903F00F03043B1201D2B20B441A7604
:1012BC0000BF0C37BD4680BC704700BF00E100E0AA
:1012CC0000ED00E080B489B000AFF860B9607A60DE
:1012DC00FB6803F00703FB61FB69C3F10703042BF5
:1012EC0028BF0423BB61FB690433062B02D9FB69BD
:1012FC00033B00E000237B614FF0FF32BB6902FA35
:10130C0003F3DA43BB681A407B699A404FF0FF3114
:10131C007B6901FA03F3D9437B680B4013431846EE
:10132C002437BD4680BC704780B582B000AF786072
:10133C007B68013BB3F1807F01D301230FE00A4AA4
:10134C007B68013B53600F214FF0FF30FFF790FF9C
:10135C00054B00229A60044B07221A6000231846A2
:10136C000837BD4680BD00BF10E000E080B582B0FC
:10137C0000AF78607868FFF72DFF00BF0837BD46D7
:10138C0080BD80B586B000AF0346B9607A60FB7350
:10139C0000237B61FFF742FF78617A68B96878694E
:1013AC00FFF790FF024697F90F3011461846FFF7EA
:1013BC005FFF00BF1837BD4680BD80B582B000AF5F
:1013CC000346FB7197F907301846FFF735FF00BF4E
:1013DC000837BD4680BD80B582B000AF78607868B4
:1013EC00FFF7A2FF034618460837BD4680BD000034
:1013FC0080B48BB000AF7860396000237B6200232F
:10140C003B6227E101227B6A02FA03F3FB613B6832
:10141C001B68FA691340BB61BA69FB699A4240F0D8
:10142C0016813B685B68122B34D0122B0DD8022B23
:10143C002BD0022B04D8002B31D0012B1CD048E030
:10144C00032B43D0112B1BD043E0894A934226D067
:10145C00874A934206D8874A934220D0864A9342C1
:10146C001DD036E0854A934219D0854A934216D056
:10147C00844A934213D02CE03B68DB683B6228E043
:10148C003B68DB6804333B6223E03B68DB68083372
:10149C003B621EE03B68DB680C333B6219E03B6847
:1014AC009B68002B02D104233B6212E03B689B68D3
:1014BC00012B05D108233B627B68FA691A6108E0AD
:1014CC0008233B627B68FA695A6102E000233B62A5
:1014DC0000BFBB69FF2B01D87B6801E07B6804333C
:1014EC007B61BB69FF2B02D87B6A9B0002E07B6AA5
:1014FC00083B9B003B617B691A680F213B6901FA31
:10150C0003F3DB431A40396A3B6901FA03F31A43CC
:10151C007B691A603B685B6803F08053002B00F01A
:10152C009680594B9B69584A43F001039361564B83
:10153C009B6903F00103BB60BB68544A7B6A9B0840
:10154C00023352F82330FB607B6A03F003039B00E9
:10155C000F2202FA03F3DB43FA681340FB607B684B
:10156C004B4A934213D07B684A4A93420DD07B6816
:10157C00494A934207D07B68484A934201D10323DE
:10158C0006E0042304E0022302E0012300E0002330
:10159C007A6A02F0030292009340FA681343FB60EC
:1015AC003A497B6A9B080233FA6841F823203B686E
:1015BC005B6803F48033002B06D0394B1A6838492A
:1015CC00BB6913430B6006E0354B1A68BB69DB4300
:1015DC00334913400B603B685B6803F40033002B0A
:1015EC0006D02F4B5A682E49BB6913434B6006E05B
:1015FC002B4B5A68BB69DB43294913404B603B6852
:10160C005B6803F48013002B06D0254B9A682449A1
:10161C00BB6913438B6006E0214B9A68BB69DB43C3
:10162C001F4913408B603B685B6803F40013002B6D
:10163C0006D01B4BDA681A49BB691343CB6006E032
:10164C00174BDA68BB69DB4315491340CB607B6AE7
:10165C0001337B623B681A687B6A22FA03F3002B26
:10166C007FF4D0AE00BF2C37BD4680BC704700BFA6
:10167C0000002110000011100000121000003110A9
:10168C000000321000002210001002400000014047
:10169C0000080140000C0140001001400014014002
:1016AC000004014080B485B000AF78600B467B80AD
:1016BC007B689A687B881340002B02D00123FB7354
:1016CC0001E00023FB73FB7B18461437BD4680BC3E
:1016DC00704780B483B000AF78600B467B801346B4
:1016EC007B707B78002B03D07A887B681A6103E0CF
:1016FC007B881A047B681A6100BF0C37BD4680BC1E
:10170C00704780B485B000AF78600B467B807B68F7
:10171C00DB68FB607A88FB6813401A04FB68D943CA
:10172C007B880B401A437B681A6100BF1437BD4697
:10173C0080BC7047F0B58BB006AF78607B68002B2F
:10174C0001D10123FDE07B6893F8A932DBB2002BB9
:10175C0006D17B68002283F8A822786806F09CFBEF
:10176C007B68032283F8A9227B681B68184602F069
:10177C00A1FD7B681B683B607E686D4606F110041A
:10178C000FCC0FC523682B60331D0ECB386802F0CD
:10179C006BFD0346002B05D07B68022283F8A9223F
:1017AC000123CEE07B681B680021184602F09CFDEB
:1017BC000023FB734CE0FB7B79685A1C13469B009F
:1017CC001344DB000B44013301221A70FB7B796854
:1017DC005A1C13469B001344DB000B44FA7B1A7013
:1017EC00FA7BFB7B98B2796813469B001344DB00B1
:1017FC000B44363302461A80FB7B79685A1C13461D
:10180C009B001344DB000B44033300221A70FA7B59
:10181C00796813469B001344DB000B4438330022D9
:10182C001A60FA7B796813469B001344DB000B4467
:10183C003C3300221A60FA7B796813469B001344F0
:10184C00DB000B44403300221A60FB7B0133FB733B
:10185C00FA7B7B685B689A42ADD30023FB7344E050
:10186C00FA7B796813469B001344DB000B4403F2AC
:10187C00691300221A70FA7B796813469B00134493
:10188C00DB000B4403F5B473FA7B1A70FA7B7968AE
:10189C0013469B001344DB000B4403F26B13002232
:1018AC001A70FA7B796813469B001344DB000B44D7
:1018BC0003F5BC7300221A60FA7B796813469B000F
:1018CC001344DB000B4403F5BE7300221A60FA7B51
:1018DC00796813469B001344DB000B4403F5C0737B
:1018EC0000221A60FB7B0133FB73FA7B7B685B681D
:1018FC009A42B5D37B681B683B607E686D4606F1E7
:10190C0010040FCC0FC523682B60331D0ECB386829
:10191C0002F0F6FC0346002B05D07B68022283F80C
:10192C00A92201230DE07B68002283F824207B6828
:10193C00012283F8A9227B681B68184604F090FCEE
:10194C00002318461437BD46F0BD80B582B000AFF9
:10195C0078607B6893F8A832012B01D1022316E042
:10196C007B68012283F8A8227B681B68184602F06A
:10197C008BFC0121786806F002FD7B681B68184619
:10198C0004F064FC7B68002283F8A822002318462C
:10199C000837BD4680BD80B588B000AF78607B68E5
:1019AC001B68184604F066FC034603F40043B3F5C9
:1019BC00004F02D1786800F061FB7B681B68184609
:1019CC0004F058FC034603F48063B3F5806F12D126
:1019DC007B681B68B3F844309AB27B681B6822F4AE
:1019EC00806292B2A3F84420786806F0D0FA002105
:1019FC00786800F025F97B681B68184604F03AFCFF
:101A0C00034603F48043B3F5804F0BD17B681B680E
:101A1C00B3F844309AB27B681B6822F4804292B2CD
:101A2C00A3F844207B681B68184604F023FC03468B
:101A3C0003F40053B3F5005F0BD17B681B68B3F85C
:101A4C0044309AB27B681B6822F4005292B2A3F81D
:101A5C0044207B681B68184604F00CFC034603F416
:101A6C008053B3F5805F26D17B681B68B3F8403098
:101A7C009AB27B681B6822F0040292B2A3F8402051
:101A8C007B681B68B3F840309AB27B681B6822F005
:101A9C00080292B2A3F84020786806F0B1FA7B688D
:101AAC001B68B3F844309AB27B681B6822F48052EE
:101ABC0092B2A3F844207B681B68184604F0DAFB4A
:101ACC00034603F40063B3F5006F40F084800023F9
:101ADC00FB7711E07B681B681A46FB7F9B001A445E
:101AEC00FB7F128892B25B0007F120010B4423F8B4
:101AFC00142CFB7F0133FB77FB7F072BEAD97B6828
:101B0C001B68B3F840309AB27B681B6842F0010244
:101B1C0092B2A3F840207B681B68B3F840309AB2AD
:101B2C007B681B6822F0010292B2A3F8402000BF30
:101B3C007B681B68B3F844309BB203F48063002BC2
:101B4C00F6D07B681B68B3F844309AB27B681B688C
:101B5C0022F4806292B2A3F844200023FB7710E0B9
:101B6C00FB7F7A6812681146FA7F92000A445B0088
:101B7C0007F120010B4433F8143C1380FB7F013335
:101B8C00FB77FB7F072BEBD97B681B68B3F84030E6
:101B9C009AB27B681B6842F0080292B2A3F840200C
:101BAC007B681B68B3F844309AB27B681B6822F4DC
:101BBC00006292B2A3F844207B681B68B3F84030F3
:101BCC009AB27B681B6842F0040292B2A3F84020E0
:101BDC00786806F0FBF97B681B68184604F04AFB32
:101BEC00034603F40073B3F5007F0ED17B681B68CA
:101BFC00B3F844309AB27B681B6822F4007292B23C
:101C0C00A3F84420786806F0B4F97B681B68184682
:101C1C0004F030FB034603F48073B3F5807F0BD1E3
:101C2C007B681B68B3F844309AB27B681B6822F45B
:101C3C00807292B2A3F8442000BF2037BD4680BD0D
:101C4C0080B582B000AF78600B46FB707B6893F870
:101C5C00A832012B01D1022313E07B68012283F807
:101C6C00A8227B68FA7883F824207B681B68FA78B2
:101C7C001146184604F0D7FA7B68002283F8A82294
:101C8C00002318460837BD4680BD80B584B000AF30
:101C9C007860084611461A460346FB700B463B809B
:101CAC001346BB700023FB7297F90330002B0EDA3E
:101CBC00FB7803F007035A1C13469B001344DB000C
:101CCC007A681344FB60FB6801225A700EE0FB78C3
:101CDC0003F0070213469B001344DB0003F5B473B7
:101CEC007A681344FB60FB6800225A70FB7803F09F
:101CFC000703DAB2FB681A703A88FB681A61FB6852
:101D0C00BA78DA70FB685B78002B04D0FB681B7820
:101D1C009AB2FB68DA81BB78022B02D1FB680022F5
:101D2C001A717B6893F8A832012B01D102230EE0C3
:101D3C007B68012283F8A8227B681B68F968184627
:101D4C0002F0FEFA7B68002283F8A822FB7A184680
:101D5C001037BD4680BD80B584B000AF78600B46AF
:101D6C00FB7097F90330002B0EDAFB7803F00703B6
:101D7C005A1C13469B001344DB007A681344FB6027
:101D8C00FB6801225A700EE0FB7803F00702134641
:101D9C009B001344DB0003F5B4737A681344FB60B7
:101DAC00FB6800225A70FB7803F00703DAB2FB6879
:101DBC001A707B6893F8A832012B01D102230EE034
:101DCC007B68012283F8A8227B681B68F968184697
:101DDC0002F020FE7B68002283F8A822002318461C
:101DEC001037BD4680BD80B586B000AFF8607A6014
:101DFC003B600B46FB72FB7A03F0070213469B0019
:101E0C001344DB0003F5B473FA6813447B617B69FC
:101E1C007A685A617B693A689A617B690022DA6157
:101E2C007B6900225A70FB7A03F00703DAB27B69F4
:101E3C001A70FB7A03F00703002B06D1FB681B68B2
:101E4C007969184602F0D2FF05E0FB681B687969D6
:101E5C00184602F0CBFF002318461837BD4680BD4C
:101E6C0080B483B000AF78600B46FB70FB7803F056
:101E7C000702796813469B001344DB000B4403F5FF
:101E8C00C2731B6818460C37BD4680BC704780B5C2
:101E9C0086B000AFF8607A603B600B46FB72FB7A51
:101EAC0003F007035A1C13469B001344DB00FA682B
:101EBC0013447B617B697A685A617B693A689A61E1
:101ECC007B69012283F824207B693A681A627B695A
:101EDC000022DA617B6901225A70FB7A03F0070356
:101EEC00DAB27B691A70FB7A03F00703002B06D178
:101EFC00FB681B687969184602F078FF05E0FB68FF
:101F0C001B687969184602F071FF002318461837D0
:101F1C00BD4680BD80B584B000AF78600B46FB70C9
:101F2C00FB7803F007027B685B689A4201D90123B6
:101F3C004CE097F90330002B0EDAFB7803F0070323
:101F4C005A1C13469B001344DB007A681344FB6055
:101F5C00FB6801225A700CE0FA7813469B0013447C
:101F6C00DB0003F5B4737A681344FB60FB68002252
:101F7C005A70FB6801229A70FB7803F00703DAB2FF
:101F8C00FB681A707B6893F8A832012B01D10223ED
:101F9C001CE07B68012283F8A8227B681B68F96827
:101FAC00184604F043F8FB7803F00703002B08D124
:101FBC007B681A687B6803F52C731946104604F08D
:101FCC0068F97B68002283F8A82200231846103792
:101FDC00BD4680BD80B584B000AF78600B46FB7009
:101FEC00FB7803F00F027B685B689A4201D90123EE
:101FFC0040E097F90330002B0EDAFB7803F007036F
:10200C005A1C13469B001344DB007A681344FB6094
:10201C00FB6801225A700EE0FB7803F007021346AE
:10202C009B001344DB0003F5B4737A681344FB6024
:10203C00FB6800225A70FB6800229A70FB7803F050
:10204C000703DAB2FB681A707B6893F8A832012B8D
:10205C0001D102230EE07B68012283F8A8227B6861
:10206C001B68F968184604F031F87B68002283F885
:10207C00A822002318461037BD4680BD80B58EB00F
:10208C0000AF7860DFE27B681B68B3F84430FB85F7
:10209C00FB8DDBB203F00F0387F82D3097F82D3052
:1020AC00002B40F05881FB8D03F01003002B52D114
:1020BC007B681B681B889BB223F4E14323F07003FD
:1020CC00FB817B681A68FB896FEA43436FEA5343D1
:1020DC009BB213807B6828337B627B681B68B3F8E8
:1020EC0050309BB21A467B6A1B78DB0013440233D8
:1020FC005B007A681268134403F580631B88C3F392
:10210C0009027B6ADA617B6A5A697B6ADB691A4469
:10211C007B6A5A610021786805F011FF7B6893F89F
:10212C002430DBB2002B00F08E827B6A9B69002B83
:10213C0040F089827B6893F82430DBB263F07F0334
:10214C00DAB27B681B6892B2A3F84C207B68002241
:10215C0083F8242077E27B6803F5B4737B627B6899
:10216C001B681B887B857B8D03F40063002B34D0AC
:10217C007B681B68B3F850309BB21A467B6A1B789D
:10218C00DB00134406335B007A681268134403F5D2
:10219C0080631B88C3F309027B6ADA617B68186869
:1021AC007B6803F52C717B6ADA887B6ADB699BB2EE
:1021BC0004F0BEF87B681B681B889AB240F68F73DC
:1021CC0013403B827B681B683A8A42F0800292B2D1
:1021DC001A80786805F086FE35E2B7F92A30002BB4
:1021EC0080F231827B681B681B889AB240F68F7331
:1021FC001340BB837B681B68BA8B42F0800292B29F
:10220C001A807B681B68B3F850309BB21A467B6A05
:10221C001B78DB00134406335B007A6812681344A6
:10222C0003F580631B88C3F309027B6ADA617B6A5E
:10223C00DB69002B19D07B6A5B69002B15D07B689E
:10224C0018687B6A59697B6ADA887B6ADB699BB29E
:10225C0004F06EF87B6A5A697B6ADB691A447B6A04
:10226C005A610021786805F04FFE7B681B68BB61E2
:10227C007B681B68B3F850309BB21A46BB69134499
:10228C00BB61BB6903F20C437B617B6A1B69002B4E
:10229C0012D17B691B889BB223F4F8439AB27B69F9
:1022AC001A807B691B889BB26FEA43436FEA5343E6
:1022BC009AB27B691A802FE07B6A1B693E2B13D87C
:1022CC007B6A1B695B083B637B6A1B6903F0010338
:1022DC00002B02D03B6B01333B633B6B9BB29B02ED
:1022EC009AB27B691A8017E07B6A1B695B093B63B6
:1022FC007B6A1B6903F01F03002B02D13B6B013B74
:10230C003B633B6B9BB29B029BB26FEA43436FEA0E
:10231C0053439AB27B691A807B681B681B889BB2FB
:10232C0023F4804323F070037B827B8A83F48053F5
:10233C007B827B8A83F400537B827B681A687B8A5E
:10234C0043F07F4343F47F0343F4004343F08003A3
:10235C009BB2138077E17B681B681A4697F82D3087
:10236C009B0013441B887B85B7F92A30002B80F225
:10237C00EA807B681B681A4697F82D309B00134443
:10238C001B889AB240F68F7313403B857B681B68A1
:10239C001A4697F82D309B0013443A8D42F0800278
:1023AC0092B21A8097F82D2013469B001344DB0041
:1023BC0003F5B4737A6813447B627B6A1B7B002B36
:1023CC0022D17B681B68B3F850309BB21A467B6AEB
:1023DC001B78DB00134406335B007A6812681344E5
:1023EC0003F580631B88C3F30903FB86FB8E002B6C
:1023FC0000F087807B6818687B6A59697B6ADA8889
:10240C00FB8E03F095FF7CE07B6ADB78022B08D116
:10241C007B8D1A46796A786800F023F90346FB86AF
:10242C006FE07B681B681A467B6A1B789B00134421
:10243C001B889BB223F4E04323F070037B847B68FE
:10244C001B681A467B6A1B789B001A447B8C43F0F2
:10245C007F4343F47F0343F4004343F0C0039BB238
:10246C0013807B681B681A467B6A1B789B0013449D
:10247C001B889BB203F48043002B21D07B681B6824
:10248C00B3F850309BB21A467B6A1B78DB001344BE
:10249C0002335B007A681268134403F580631B886F
:1024AC00C3F30903FB86FB8E002B2AD07B681868CC
:1024BC007B6A59697B6A1A89FB8E03F039FF20E02D
:1024CC007B681B68B3F850309BB21A467B6A1B784A
:1024DC00DB00134406335B007A681268134403F57F
:1024EC0080631B88C3F30903FB86FB8E002B08D08B
:1024FC007B6818687B6A59697B6A5A89FB8E03F082
:10250C0017FF7B6ADA69FB8E1A447B6ADA617B6A95
:10251C005A69FB8E1A447B6A5A617B6A9B69002B51
:10252C0004D0FA8E7B6A1B699A4206D27B6A1B78AE
:10253C001946786805F0E8FC05E07B681B68796A49
:10254C00184602F053FC7B8D03F08003002B7AD0ED
:10255C0097F82D305A1C13469B001344DB007A6805
:10256C0013447B627B681B681A4697F82D309B00DE
:10257C0013441B889BB223F4E14323F070033B8488
:10258C007B681B681A4697F82D309B001A443B8CCD
:10259C006FEA43436FEA53439BB213807B6ADB7849
:1025AC00022B08D17B6ADB78022B46D17B8D03F49E
:1025BC008073002B41D17B681B68B3F850309BB201
:1025CC001A467B6A1B78DB00134402335B007A6883
:1025DC001268134403F580631B88C3F30903FB8360
:1025EC007B6A9A69FB8B9A4206D97B6A9A69FB8B48
:1025FC00D21A7B6A9A6102E07B6A00229A617B6A3A
:10260C009B69002B06D17B6A1B781946786805F00C
:10261C0096FC18E07B6A5A69FB8B1A447B6A5A61F8
:10262C007B6ADA69FB8B1A447B6ADA617B681B680C
:10263C00796A184602F0DAFB05E07B8D1A46796A56
:10264C00786800F01BF97B681B68B3F844309BB2C8
:10265C001BB2002BFFF617AD002318463837BD46CA
:10266C0080BD80B588B000AFF860B9601346FB80C0
:10267C00FB8803F48043002B7ED0FB681B68B3F807
:10268C0050309BB21A46BB681B78DB0013440233F4
:10269C005B00FA681268134403F580631B88C3F36C
:1026AC0009037B83BB689A697B8B9A4206D3BB6810
:1026BC009A697B8BD21ABB689A6102E0BB680022D4
:1026CC009A61BB689B69002B23D1FB681B681A4677
:1026DC00BB681B789B0013441B889BB223F480437C
:1026EC0023F070033B833B8B83F400533B83FB68E9
:1026FC001B681A46BB681B789B001A443B8B43F043
:10270C007F4343F47F0343F4004343F080039BB2C5
:10271C001380FB8803F04003002B1FD0FB681B6861
:10272C001A46BB681B789B0013441B889BB223F48E
:10273C00E04323F07003FB82FB681B681A46BB68FE
:10274C001B789B001A44FB8A43F07F4343F47F03BE
:10275C0043F4004343F0C0039BB213807B8B002BEC
:10276C0000F08780FB681868BB685969BB681A89D8
:10277C007B8B03F0DDFD7CE0FB681B68B3F850300D
:10278C009BB21A46BB681B78DB00134406335B0014
:10279C00FA681268134403F580631B88C3F30903BA
:1027AC007B83BB689A697B8B9A4206D3BB689A6918
:1027BC007B8BD21ABB689A6102E0BB6800229A61DB
:1027CC00BB689B69002B23D1FB681B681A46BB684E
:1027DC001B789B0013441B889BB223F4804323F08B
:1027EC007003FB83FB8B83F40053FB83FB681B6838
:1027FC001A46BB681B789B001A44FB8B43F07F4343
:10280C0043F47F0343F4004343F080039BB21380F3
:10281C00FB8803F04003002B1FD1FB681B681A4692
:10282C00BB681B789B0013441B889BB223F4E043CA
:10283C0023F07003BB83FB681B681A46BB681B78CC
:10284C009B001A44BB8B43F07F4343F47F0343F458
:10285C00004343F0C0039BB213807B8B002B08D04A
:10286C00FB681868BB685969BB685A897B8B03F095
:10287C005FFD7B8B18462037BD4680BD80B592B07E
:10288C0000AFF860B9601346FB80FB8803F040038F
:10289C00002B00F03281FB681B68B3F850309BB200
:1028AC001A46BB681B78DB00134402335B00FA68E2
:1028BC001268134403F580631B88C3F30903FB857B
:1028CC00BB689A69FB8D9A4206D9BB689A69FB8DE5
:1028DC00D21ABB689A6102E0BB6800229A61BB689D
:1028EC009B69002B2CD1BB681B781946F86805F046
:1028FC0026FBFB8803F48043002B00F02F82FB683F
:10290C001B681A46BB681B789B0013441B889BB240
:10291C0023F4E04323F070037B82FB681B681A46A8
:10292C00BB681B789B001A447B8A43F07F4343F4BB
:10293C007F0343F4404343F080039BB213800DE2CA
:10294C00FB8803F48043002B1FD0FB681B681A46DE
:10295C00BB681B789B0013441B889BB223F4E04399
:10296C0023F07003BB84FB681B681A46BB681B789A
:10297C009B001A44BB8C43F07F4343F47F0343F426
:10298C00404343F080039BB21380BB6893F8243020
:10299C00012B40F0E381BB685A69FB8D1A44BB687C
:1029AC005A61BB68DA69FB8D1A44BB68DA61BB6893
:1029BC001A6ABB681B699A4209D3BB681B69BB6363
:1029CC00BB681A6ABB6BD21ABB681A6214E0BB688C
:1029DC001B6A002B06D1FB8DBB63BB68002283F8FE
:1029EC00242009E0BB68002283F82420BB681B6A02
:1029FC00BB63BB6800221A62BB685B78002B55D1A5
:102A0C00FB681B68BB61FB681B68B3F850309BB25A
:102A1C001A46BB691344BB61BB681B781A01BB69BE
:102A2C00134403F204437B61BB6B002B12D17B6913
:102A3C001B889BB223F4F8439AB27B691A807B699A
:102A4C001B889BB26FEA43436FEA53439AB27B698C
:102A5C001A8047E0BB6B3E2B11D8BB6B5B08BB628B
:102A6C00BB6B03F00103002B02D0BB6A0133BB62CA
:102A7C00BB6A9BB29B029AB27B691A8032E0BB6B39
:102A8C005B09BB62BB6B03F01F03002B02D1BB6A5B
:102A9C00013BBB62BB6A9BB29B029BB26FEA434396
:102AAC006FEA53439AB27B691A801BE0BB685B7870
:102ABC00012B17D1FB681B683B62FB681B68B3F8E2
:102ACC0050309BB21A463B6A13443B62BB681B787E
:102ADC001A013B6A134403F20443FB61BB6B9AB2C9
:102AEC00FB691A80FB681868BB685969BB681A894E
:102AFC00BB6B9BB203F0D8FB30E1FB681B68B3F8EF
:102B0C0050309BB21A46BB681B78DB00134406336B
:102B1C005B00FA681268134403F580631B88C3F3E7
:102B2C000903FB85BB689A69FB8D9A4206D3BB6887
:102B3C009A69FB8DD21ABB689A6102E0BB680022CD
:102B4C009A61BB689B69002B2CD1BB681B7819461A
:102B5C00F86805F0F4F9FB8803F48043002B40F08F
:102B6C00FD80FB681B681A46BB681B789B001344EE
:102B7C001B889BB223F4E04323F07003FB84FB68B7
:102B8C001B681A46BB681B789B001A44FB8C43F0ED
:102B9C007F4343F47F0343F4404343F080039BB2F1
:102BAC001380DBE0FB8803F48043002B1FD1FB6810
:102BBC001B681A46BB681B789B0013441B889BB28E
:102BCC0023F4E04323F07003BB85FB681B681A46B3
:102BDC00BB681B789B001A44BB8D43F07F4343F4C6
:102BEC007F0343F4404343F080039BB21380BB68E4
:102BFC0093F82430012B40F0B180BB685A69FB8DEF
:102C0C001A44BB685A61BB68DA69FB8D1A44BB680D
:102C1C00DA61BB681A6ABB681B699A4209D3BB6844
:102C2C001B69BB63BB681A6ABB6BD21ABB681A629E
:102C3C0014E0BB681B6A002B06D1FB8DBB63BB6821
:102C4C00002283F8242009E0BB681B6ABB63BB68C5
:102C5C0000221A62BB68002283F82420FB681B68E0
:102C6C007B63BB685B78002B55D1FB681B687B646E
:102C7C00FB681B68B3F850309BB21A467B6C13444C
:102C8C007B64BB681B781A017B6C134403F20C4306
:102C9C003B64BB6B002B12D13B6C1B889BB223F4A7
:102CAC00F8439AB23B6C1A803B6C1B889BB26FEA60
:102CBC0043436FEA53439AB23B6C1A8044E0BB6BBC
:102CCC003E2B11D8BB6B5B08FB63BB6B03F00103A2
:102CDC00002B02D0FB6B0133FB63FB6B9BB29B02A3
:102CEC009AB23B6C1A802FE0BB6B5B09FB63BB6B2E
:102CFC0003F01F03002B02D1FB6B013BFB63FB6B4F
:102D0C009BB29B029BB26FEA43436FEA53439AB266
:102D1C003B6C1A8018E0BB685B78012B14D1FB6804
:102D2C001B68B3F850309BB21A467B6B13447B6321
:102D3C00BB681B781A017B6B134403F20C433B6397
:102D4C00BB6B9AB23B6B1A80FB681868BB685969FD
:102D5C00BB685A89BB6B9BB203F0A6FAFB681B6875
:102D6C001A46BB681B789B0013441B889BB223F448
:102D7C00E04323F040033B823B8A83F010033B8209
:102D8C003B8A83F020033B82FB681B681A46BB68B6
:102D9C001B789B001A443B8A43F07F4343F47F0328
:102DAC0043F4004343F080039BB213800023184686
:102DBC004837BD4680BD80B487B000AFF8607B60FB
:102DCC000B467B8113463B817B8903F080039BB2CE
:102DDC00002B0BD07B8903F007035A1C13469B0076
:102DEC001344DB00FA6813447B6109E07A891346CB
:102DFC009B001344DB0003F5B473FA6813447B6146
:102E0C003B89002B07D17B6900221A737B689AB22D
:102E1C007B69DA800BE07B6901221A737B689AB2BA
:102E2C007B691A817B681B0C9AB27B695A810023DF
:102E3C0018461C37BD4680BC7047000080B586B074
:102E4C0000AF78607B68002B01D101236CE27B68BA
:102E5C001B6803F00103002B00F08780924B5B682A
:102E6C0003F00C03042B0CD08F4B5B6803F00C03AA
:102E7C00082B12D18C4B5B6803F48033B3F5803F85
:102E8C000BD1894B1B6803F40033002B6CD07B688F
:102E9C005B68002B68D1012346E27B685B68B3F565
:102EAC00803F06D1804B1B687F4A43F4803313600C
:102EBC002EE07B685B68002B0CD17B4B1B687A4A3D
:102ECC0023F480331360784B1B68774A23F48023F8
:102EDC0013601DE07B685B68B3F5A02F0CD1724BBF
:102EEC001B68714A43F4802313606F4B1B686E4A56
:102EFC0043F4803313600BE06B4B1B686A4A23F47A
:102F0C0080331360684B1B68674A23F4802313607B
:102F1C007B685B68002B13D0FEF730F9386108E052
:102F2C00FEF72CF902463B69D31A642B01D9032313
:102F3C00FAE15D4B1B6803F40033002BF0D014E076
:102F4C00FEF71CF9386108E0FEF718F902463B69F8
:102F5C00D31A642B01D90323E6E1534B1B6803F40A
:102F6C000033002BF0D100E000BF7B681B6803F03E
:102F7C000203002B63D04C4B5B6803F00C03002B5B
:102F8C000BD0494B5B6803F00C03082B1CD1464B50
:102F9C005B6803F48033002B16D1434B1B6803F0A2
:102FAC000203002B05D07B681B69012B01D0012388
:102FBC00BAE13D4B1B6823F0F8027B685B69DB00D0
:102FCC00394913430B603AE07B681B69002B20D016
:102FDC00364B01221A60FEF7D1F8386108E0FEF793
:102FEC00CDF802463B69D31A022B01D903239BE18E
:102FFC002D4B1B6803F00203002BF0D02A4B1B68EF
:10300C0023F0F8027B685B69DB00274913430B60F4
:10301C0015E0264B00221A60FEF7B0F8386108E084
:10302C00FEF7ACF802463B69D31A022B01D90323F5
:10303C007AE11D4B1B6803F00203002BF0D17B6877
:10304C001B6803F00803002B3AD07B689B69002BAC
:10305C0019D0174B01221A60FEF790F8386108E07E
:10306C00FEF78CF802463B69D31A022B01D90323D5
:10307C005AE10D4B5B6A03F00203002BF0D00120E8
:10308C0000F0B2FA1CE00A4B00221A60FEF776F848
:10309C0038610FE0FEF772F802463B69D31A022B37
:1030AC0008D9032340E100BF001002400000424257
:1030BC00800442429E4B5B6A03F00203002BE9D171
:1030CC007B681B6803F00403002B00F0A680002330
:1030DC00FB75974BDB6903F08053002B0DD1944BA0
:1030EC00DB69934A43F08053D361914BDB6903F066
:1030FC008053BB60BB680123FB758E4B1B6803F4CC
:10310C008073002B18D18B4B1B688A4A43F4807355
:10311C001360FEF733F8386108E0FEF72FF802462B
:10312C003B69D31A642B01D90323FDE0814B1B6847
:10313C0003F48073002BF0D07B68DB68012B06D185
:10314C007B4B1B6A7A4A43F0010313622DE07B68C8
:10315C00DB68002B0CD1764B1B6A754A23F00103FC
:10316C001362734B1B6A724A23F0040313621CE054
:10317C007B68DB68052B0CD16D4B1B6A6C4A43F0EA
:10318C00040313626A4B1B6A694A43F0010313621E
:10319C000BE0674B1B6A664A23F001031362644B16
:1031AC001B6A634A23F0040313627B68DB68002B01
:1031BC0015D0FDF7E3FF38610AE0FDF7DFFF0246AB
:1031CC003B69D31A41F28832934201D90323ABE015
:1031DC00574B1B6A03F00203002BEED014E0FDF7F3
:1031EC00CDFF38610AE0FDF7C9FF02463B69D31AEF
:1031FC0041F28832934201D9032395E04C4B1B6A70
:10320C0003F00203002BEED1FB7D012B05D1484BC3
:10321C00DB69474A23F08053D3617B68DB69002B61
:10322C0000F08180424B5B6803F00C03082B61D0EB
:10323C007B68DB69022B46D13F4B00221A60FDF7FD
:10324C009DFF386108E0FDF799FF02463B69D31AF0
:10325C00022B01D9032367E0354B1B6803F0007385
:10326C00002BF0D17B681B6AB3F5803F08D1304B43
:10327C005B6823F400327B689B682D4913434B60D9
:10328C002B4B5B6823F474127B68196A7B685B6A4E
:10329C000B43274913434B60274B01221A60FDF760
:1032AC006DFF386108E0FDF769FF02463B69D31AF0
:1032BC00022B01D9032337E01D4B1B6803F000736D
:1032CC00002BF0D02FE01C4B00221A60FDF756FFAC
:1032DC00386108E0FDF752FF02463B69D31A022B16
:1032EC0001D9032320E0124B1B6803F00073002B61
:1032FC00F0D118E07B68DB69012B01D1012313E0CD
:10330C000B4B5B68FB60FB6803F480327B681B6AC9
:10331C009A4206D1FB6803F470127B685B6A9A428E
:10332C0001D0012300E0002318461837BD4680BDAC
:10333C0000100240007000406000424280B584B032
:10334C0000AF786039607B68002B01D10123D0E09D
:10335C006A4B1B6803F007033A689A4210D9674B13
:10336C001B6823F0070265493B6813430B60634BF2
:10337C001B6803F007033A689A4201D00123B8E0B6
:10338C007B681B6803F00203002B20D07B681B6852
:10339C0003F00403002B05D0594B5B68584A43F4E7
:1033AC00E06353607B681B6803F00803002B05D0B7
:1033BC00534B5B68524A43F460535360504B5B6809
:1033CC0023F0F0027B689B684D4913434B607B688C
:1033DC001B6803F00103002B40D07B685B68012B5A
:1033EC0007D1474B1B6803F40033002B15D1012385
:1033FC007FE07B685B68022B07D1414B1B6803F0B5
:10340C000073002B09D1012373E03D4B1B6803F0C3
:10341C000203002B01D101236BE0394B5B6823F0D5
:10342C0003027B685B68364913434B60FDF7A6FECD
:10343C00F8600AE0FDF7A2FE0246FB68D31A41F2DF
:10344C008832934201D9032353E02D4B5B6803F080
:10345C000C027B685B689B009A42EBD1274B1B6884
:10346C0003F007033A689A4210D2244B1B6823F0EE
:10347C00070222493B6813430B60204B1B6803F087
:10348C0007033A689A4201D0012332E07B681B683B
:10349C0003F00403002B08D0194B5B6823F4E062A3
:1034AC007B68DB68164913434B607B681B6803F031
:1034BC000803002B09D0124B5B6823F460527B6825
:1034CC001B69DB000E4913434B6000F021F80146E9
:1034DC000B4B5B681B0903F00F030A4AD35C21FA00
:1034EC0003F3094A1360094B1B681846FDF704FEE9
:1034FC00002318461037BD4680BD00BF0020024097
:10350C0000100240D48400080C00002010000020A1
:10351C0090B48AB000AF2A4B3C1D0FCB84E80F004F
:10352C00284B1B883B800023FB610023BB610023DD
:10353C007B6200237B6100233B62234B5B68FB6156
:10354C00FB6903F00C03042B02D0082B03D02DE0F5
:10355C001E4B3B622DE0FB699B0C03F00F0307F144
:10356C002802134413F8243C7B61FB6903F4803379
:10357C00002B13D0144B5B685B0C03F0010307F1B9
:10358C002802134413F8283CBB617B690F4A02FBE9
:10359C0003F2BB69B2FBF3F37B6204E07B690C4A78
:1035AC0002FB03F37B627B6A3B6202E0074B3B62EC
:1035BC0000BF3B6A18462837BD4690BC704700BF19
:1035CC0080840008908400080010024000127A00E9
:1035DC0000093D0080B400AF024B1B681846BD4685
:1035EC0080BC70470C00002080B485B000AF7860C0
:1035FC000A4B1B680A4AA2FB03235B0A7A6802FB8C
:10360C0003F3FB6000BFFB685A1EFA60002BF9D174
:10361C0000BF1437BD4680BC704700BF0C000020B3
:10362C00D34D621080B586B000AF786000233B614B
:10363C000023FB607B681B6803F00103002B7DD02B
:10364C000023FB754F4BDB6903F08053002B0DD12E
:10365C004C4BDB694B4A43F08053D361494BDB69DC
:10366C0003F08053BB60BB680123FB75464B1B68A2
:10367C0003F48073002B18D1434B1B68424A43F46C
:10368C0080731360FDF77AFD386108E0FDF776FD75
:10369C0002463B69D31A642B01D903236DE03A4BE4
:1036AC001B6803F48073002BF0D0364B1B6A03F4B9
:1036BC004073FB60FB68002B2ED07B685B6803F4C7
:1036CC004073FA689A4227D02E4B1B6A23F440733E
:1036DC00FB602E4B01221A602C4B00221A60294AE7
:1036EC00FB681362FB6803F00103002B14D0FDF799
:1036FC0045FD38610AE0FDF741FD02463B69D31AEE
:10370C0041F28832934201D9032336E01D4B1B6AE8
:10371C0003F00203002BEED01A4B1B6A23F4407209
:10372C007B685B68174913430B62FB7D012B05D14A
:10373C00144BDB69134A23F08053D3617B681B68FD
:10374C0003F00203002B08D00E4B5B6823F44042BD
:10375C007B689B680B4913434B607B681B6803F0C9
:10376C001003002B08D0074B5B6823F480027B68A6
:10377C00DB68044913434B60002318461837BD46D9
:10378C0080BD00BF00100240007000404004424267
:10379C0080B582B000AF78607B68002B01D101232B
:1037AC0076E07B685B6A002B08D17B685B68B3F5BD
:1037BC00827F09D07B680022DA6105E07B680022F9
:1037CC001A617B6800225A617B6800229A627B68CE
:1037DC0093F85130DBB2002B06D17B68002283F8C2
:1037EC0050207868FDF79AFB7B68022283F8512001
:1037FC007B681B681A687B681B6822F040021A60A1
:10380C007B685B6803F482727B689B6803F40443F7
:10381C001A437B68DB6803F400631A437B681B69FB
:10382C0003F002031A437B685B6903F001031A433C
:10383C007B689B6903F400731A437B68DB6903F0B4
:10384C0038031A437B681B6A03F0800342EA0301C6
:10385C007B689B6A03F400527B681B680A431A60FE
:10386C007B689B691A0C7B681B6802F004025A6027
:10387C007B681B68DA697B681B6822F40062DA617A
:10388C007B6800225A657B68012283F85120002353
:10389C0018460837BD4680BD80B588B000AFF860CB
:1038AC00B9603B601346FB800023FB77FB6893F801
:1038BC005030012B01D1022326E1FB68012283F851
:1038CC005020FDF75BFCB861FB88FB82FB6893F82A
:1038DC005130DBB2012B02D00223FB770BE1BB682A
:1038EC00002B02D0FB88002B02D10123FB7702E1D5
:1038FC00FB68032283F85120FB6800225A65FB68A1
:10390C00BA681A63FB68FA889A86FB68FA88DA86C2
:10391C00FB6800229A63FB6800229A87FB680022EE
:10392C00DA87FB6800225A64FB6800221A64FB6881
:10393C009B68B3F5004F0FD1FB681B681A68FB68D6
:10394C001B6822F040021A60FB681B681A68FB684F
:10395C001B6842F480421A60FB681B681B6803F00A
:10396C004003402B07D0FB681B681A68FB681B6878
:10397C0042F040021A60FB68DB68B3F5006F4BD174
:10398C00FB685B68002B02D0FB8A012B3ED1FB68E5
:10399C001B6B1A88FB681B68DA60FB681B6B9A1C34
:1039AC00FB681A63FB68DB8E9BB2013B9AB2FB6827
:1039BC00DA862BE0FB681B689B6803F00203022B82
:1039CC0012D1FB681B6B1A88FB681B68DA60FB68FA
:1039DC001B6B9A1CFB681A63FB68DB8E9BB2013B6A
:1039EC009AB2FB68DA8611E0FDF7C8FB0246BB69A8
:1039FC00D31A3A689A4203D83B68B3F1FF3F02D11D
:103A0C003B68002B02D10323FB7774E0FB68DB8E51
:103A1C009BB2002BCED14CE0FB685B68002B02D034
:103A2C00FB8A012B40D1FB681A6BFB681B680C33BB
:103A3C0012781A70FB681B6B5A1CFB681A63FB68C4
:103A4C00DB8E9BB2013B9AB2FB68DA862CE0FB68FA
:103A5C001B689B6803F00203022B13D1FB681A6BE3
:103A6C00FB681B680C3312781A70FB681B6B5A1CB2
:103A7C00FB681A63FB68DB8E9BB2013B9AB2FB6856
:103A8C00DA8611E0FDF77AFB0246BB69D31A3A6875
:103A9C009A4203D83B68B3F1FF3F02D13B68002B3D
:103AAC0002D10323FB7726E0FB68DB8E9BB2002B55
:103ABC00CDD1BA693968F86800F0B8FB0346002B21
:103ACC0002D0FB6820225A65FB689B68002B0AD148
:103ADC0000233B61FB681B68DB683B61FB681B6870
:103AEC009B683B613B69FB685B6D002B02D001233B
:103AFC00FB7700E000BFFB68012283F85120FB68D4
:103B0C00002283F85020FB7F18462037BD4680BD2D
:103B1C0080B588B002AFF860B9603B601346FB809B
:103B2C000023FB75FB685B68B3F5827F12D1FB68E1
:103B3C009B68002B0ED1FB68042283F85120FA8875
:103B4C003B6800931346BA68B968F86800F0F1F85E
:103B5C000346EAE0FB6893F85030012B01D10223B5
:103B6C00E3E0FB68012283F85020FDF707FB386186
:103B7C00FB6893F85130DBB2012B02D00223FB75AA
:103B8C00CAE0BB68002B02D0FB88002B02D10123BA
:103B9C00FB75C1E0FB68042283F85120FB6800220E
:103BAC005A65FB68BA689A63FB68FA889A87FB685F
:103BBC00FA88DA87FB6800221A63FB6800229A866F
:103BCC00FB680022DA86FB6800221A64FB6800227C
:103BDC005A64FB689B68B3F5004F0FD1FB681B68F8
:103BEC001A68FB681B6822F040021A60FB681B68AD
:103BFC001A68FB681B6822F480421A60FB681B6819
:103C0C001B6803F04003402B07D0FB681B681A6845
:103C1C00FB681B6842F040021A60FB68DB68002BF3
:103C2C0062D12EE0FB681B689B6803F00103012B3B
:103C3C0015D1FB681B6803F10C02FB689B6B1278B7
:103C4C00D2B21A70FB689B6B5A1CFB689A63FB68B8
:103C5C00DB8F9BB2013B9AB2FB68DA8711E0FDF770
:103C6C008DFA02463B69D31A3A689A4203D83B68EC
:103C7C00B3F1FF3F02D13B68002B02D10323FB754C
:103C8C004AE0FB68DB8F9BB2002BCBD131E0FB68A9
:103C9C001B689B6803F00103012B13D1FB681B68A5
:103CAC00DA68FB689B6B92B21A80FB689B6B9A1C60
:103CBC00FB689A63FB68DB8F9BB2013B9AB2FB6893
:103CCC00DA8711E0FDF75AFA02463B69D31A3A68D3
:103CDC009A4203D83B68B3F1FF3F02D13B68002BFB
:103CEC0002D10323FB7517E0FB68DB8F9BB2002B23
:103CFC00CDD13A693968F86800F046FA0346002BD2
:103D0C0002D0FB6820225A65FB685B6D002B02D049
:103D1C000123FB7500E000BFFB68012283F85120F2
:103D2C00FB68002283F85020FB7D18461837BD46EF
:103D3C0080BD80B58CB000AFF860B9607A607B80D4
:103D4C000123FB62002387F82B30FB6893F850307B
:103D5C00012B01D102238AE1FB68012283F8502058
:103D6C00FDF70CFA7862FB6893F8513087F8233032
:103D7C00FB685B68FB617B887B8397F82330012BA6
:103D8C000FD0FB69B3F5827F07D1FB689B68002BD2
:103D9C0003D197F82330042B03D0022387F82B3060
:103DAC005BE1BB68002B05D07B68002B02D07B88C5
:103DBC00002B03D1012387F82B304EE1FB6893F8DD
:103DCC005130DBB2042B03D0FB68052283F8512061
:103DDC00FB6800225A65FB687A689A63FB687A88EC
:103DEC00DA87FB687A889A87FB68BA681A63FB687B
:103DFC007A88DA86FB687A889A86FB6800221A64CD
:103E0C00FB6800225A64FB681B681B6803F04003C4
:103E1C00402B07D0FB681B681A68FB681B6842F0D4
:103E2C0040021A60FB68DB68B3F5006F78D1FB6861
:103E3C005B68002B02D07B8B012B66D1FB681B6B64
:103E4C001A88FB681B68DA60FB681B6B9A1CFB68A2
:103E5C001A63FB68DB8E9BB2013B9AB2FB68DA8675
:103E6C0053E0FB681B689B6803F00203022B1BD119
:103E7C00FB68DB8E9BB2002B16D0FB6A012B13D197
:103E8C00FB681B6B1A88FB681B68DA60FB681B6B92
:103E9C009A1CFB681A63FB68DB8E9BB2013B9AB2DF
:103EAC00FB68DA860023FB62FB681B689B6803F0E7
:103EBC000103012B19D1FB68DB8F9BB2002B14D0B3
:103ECC00FB681B68DA68FB689B6B92B21A80FB6814
:103EDC009B6B9A1CFB689A63FB68DB8F9BB2013B64
:103EEC009AB2FB68DA870123FB62FDF747F90246B9
:103EFC007B6AD31ABA6B9A4207D8BB6BB3F1FF3FFC
:103F0C0003D0032387F82B30A7E0FB68DB8E9BB232
:103F1C00002BA6D1FB68DB8F9BB2002BA1D17CE0E0
:103F2C00FB685B68002B02D07B8B012B6BD1FB6891
:103F3C001A6BFB681B680C3312781A70FB681B6BCE
:103F4C005A1CFB681A63FB68DB8E9BB2013B9AB26E
:103F5C00FB68DA8657E0FB681B689B6803F002037A
:103F6C00022B1CD1FB68DB8E9BB2002B17D0FB6A9B
:103F7C00012B14D1FB681A6BFB681B680C3312788D
:103F8C001A70FB681B6B5A1CFB681A63FB68DB8E90
:103F9C009BB2013B9AB2FB68DA860023FB62FB689A
:103FAC001B689B6803F00103012B19D1FB68DB8FA5
:103FBC009BB2002B14D0FB681B68DA68FB689B6B08
:103FCC00D2B21A70FB689B6B5A1CFB689A63FB6835
:103FDC00DB8F9BB2013B9AB2FB68DA870123FB6251
:103FEC00FDF7CCF802467B6AD31ABA6B9A4203D817
:103FFC00BB6BB3F1FF3F02D1BB6B002B03D103238F
:10400C0087F82B3029E0FB68DB8E9BB2002BA2D10A
:10401C00FB68DB8F9BB2002B9DD17A6AB96BF86879
:10402C0000F004F90346002B06D0012387F82B304F
:10403C00FB6820225A6510E0FB689B68002B0BD1B3
:10404C0000237B61FB681B68DB687B61FB681B687A
:10405C009B687B617B6900E000BFFB68012283F8F1
:10406C005120FB68002283F8502097F82B3018461B
:10407C003037BD4680BD000080B588B000AFF86019
:10408C00B9603B601346FB71FDF778F80246BB6ADA
:10409C009B1A3A681344FB61FDF770F8B861394B11
:1040AC001B685B011B0DFA6902FB03F37B6154E097
:1040BC003B68B3F1FF3F50D0FDF760F80246BB6997
:1040CC00D31AFA699A4202D9FB69002B3DD1FB68DD
:1040DC001B685A68FB681B6822F0E0025A60FB6898
:1040EC005B68B3F5827F11D1FB689B68B3F5004F19
:1040FC0004D0FB689B68B3F5806F07D1FB681B6825
:10410C001A68FB681B6822F040021A60FB689B6A05
:10411C00B3F5005F0FD1FB681B681A68FB681B685E
:10412C0022F400521A60FB681B681A68FB681B6853
:10413C0042F400521A60FB68012283F85120FB689C
:10414C00002283F85020032317E07B69002B01D158
:10415C000023FB617B69013B7B61FB681B689A68F0
:10416C00BB681340BA689A420CBF01230023DBB230
:10417C001A46FB799A429BD1002318462037BD463C
:10418C0080BD00BF0C00002080B586B002AFF86087
:10419C00B9607A60FB685B68B3F5827F11D1FB680C
:1041AC009B68B3F5004F04D0FB689B68B3F5806F38
:1041BC0007D1FB681B681A68FB681B6822F0400279
:1041CC001A60FB685B68B3F5827F17D1FB689B684C
:1041DC00B3F5806F12D17B680093BB68002201217C
:1041EC00F868FFF749FF0346002B1AD0FB685B6D9C
:1041FC0043F02002FB685A65032313E07B680093AD
:10420C00BB6800228021F868FFF736FF0346002BBD
:10421C0007D0FB685B6D43F02002FB685A650323F3
:10422C0000E0002318461037BD4680BD80B586B02F
:10423C0002AFF860B9607A607B680093BB680022BB
:10424C008021F868FFF718FF0346002B07D0FB68A6
:10425C005B6D43F02002FB685A65032300E00023EA
:10426C0018461037BD4680BD84B080B483B000AF13
:10427C00786007F1140080E80E00002318460C3714
:10428C00BD4680BC04B0704780B485B000AF786088
:10429C007B680022A3F844204FF43F43FB60FB688B
:1042AC009AB27B68A3F84020002318461437BD4609
:1042BC0080BC704780B485B000AF78604FF43F434A
:1042CC00FB607B68B3F840309AB2FB689BB2DB436F
:1042DC009BB213409AB27B68A3F840200023184687
:1042EC001437BD4680BC704780B483B000AF786093
:1042FC000B46FB70002318460C37BD4680BC70473C
:10430C0084B080B483B000AF786007F1140080E80B
:10431C000E007B680122A3F840207B680022A3F8E2
:10432C0040207B680022A3F844207B680022A3F87D
:10433C005020002318460C37BD4680BC04B0704793
:10434C0080B49BB000AF78603960002387F8673089
:10435C007A683B681B789B0013441B889BB223F440
:10436C00EC4323F07003A7F864303B68DB78032B35
:10437C001FD801A252F823F095430008B14300085E
:10438C00C7430008A3430008B7F8643043F4007334
:10439C00A7F8643012E0B7F8643043F4C063A7F8B0
:1043AC0064300BE0B7F8643043F48063A7F86430F2
:1043BC0004E0012387F8673000E000BF7A683B68AF
:1043CC001B789B001A44B7F8643043F07F4343F4E6
:1043DC007F0343F4004343F080039BB213807A685D
:1043EC003B681B789B0013441B889BB223F4E0436F
:1043FC0023F070039AB23B681B789BB21343A7F867
:10440C005E307A683B681B789B001A44B7F85E30C4
:10441C0043F07F4343F47F0343F4004343F08003B2
:10442C009BB213803B681B7B002B40F049813B689F
:10443C005B78002B00F084807B687B617B68B3F831
:10444C0050309BB21A467B6913447B613B681B78E6
:10445C001A017B69134403F580633B613B68DB887D
:10446C005B089BB25B009AB23B691A807A683B6826
:10447C001B789B0013441B88FB81FB8903F04003D2
:10448C00002B1BD07A683B681B789B0013441B885D
:10449C009BB223F4E04323F07003BB817A683B6842
:1044AC001B789B001A44BB8943F07F4343F47F0382
:1044BC0043F4004343F0C0039BB213803B68DB78AA
:1044CC00012B20D07A683B681B789B0013441B8817
:1044DC009BB223F4E04323F040033B813B8983F000
:1044EC0020033B817A683B681B789B001A443B890C
:1044FC0043F07F4343F47F0343F4004343F08003D2
:10450C009BB213807FE27A683B681B789B00134454
:10451C001B889BB223F4E04323F040037B817A6831
:10452C003B681B789B001A447B8943F07F4343F420
:10453C007F0343F4004343F080039BB2138062E299
:10454C007B68FB627B68B3F850309BB21A46FB6AFF
:10455C001344FB623B681B781A01FB6A134403F596
:10456C008163BB623B68DB885B089BB25B009AB2E1
:10457C00BB6A1A807B687B627B68B3F850309BB255
:10458C001A467B6A13447B623B681B781A017B6A70
:10459C00134403F20C433B623B681B69002B12D1A2
:1045AC003B6A1B889BB223F4F8439AB23B6A1A808D
:1045BC003B6A1B889BB26FEA43436FEA53439AB240
:1045CC003B6A1A802FE03B681B693E2B13D83B6873
:1045DC001B695B083B663B681B6903F00103002BFE
:1045EC0002D03B6E01333B663B6E9BB29B029AB290
:1045FC003B6A1A8017E03B681B695B093B663B68AA
:10460C001B6903F01F03002B02D13B6E013B3B6681
:10461C003B6E9BB29B029BB26FEA43436FEA5343E0
:10462C009AB23B6A1A807A683B681B789B001344E9
:10463C001B88FB83FB8B03F48043002B1BD07A6815
:10464C003B681B789B0013441B889BB223F4E0430C
:10465C0023F07003BB837A683B681B789B001A4479
:10466C00BB8B43F07F4343F47F0343F4404343F05D
:10467C0080039BB213807A683B681B789B001344C1
:10468C001B889BB223F4804323F070037B837B8BCA
:10469C0083F480537B837B8B83F400537B837A6816
:1046AC003B681B789B001A447B8B43F07F4343F49D
:1046BC007F0343F4004343F080039BB21380A2E1D9
:1046CC007A683B681B789B0013441B889BB223F4CD
:1046DC00E04323F07003A7F85C307A683B681B78E2
:1046EC009B001A44B7F85C3043F07F4343F47F03DC
:1046FC0043F4014343F080039BB213807B68BB659A
:10470C007B68B3F850309BB21A46BB6D1344BB6543
:10471C003B681B781A01BB6D134403F580637B6502
:10472C003B681B895B089BB25B009AB27B6D1A805D
:10473C007B683B657B68B3F850309BB21A463B6D87
:10474C0013443B653B681B781A013B6D134403F51E
:10475C008163FB643B685B895B089BB25B009AB22C
:10476C00FB6C1A803B685B78002B40F091807A6878
:10477C003B681B789B0013441B88BB87BB8F03F4DF
:10478C008043002B1BD07A683B681B789B0013443A
:10479C001B889BB223F4E04323F070037B877A6879
:1047AC003B681B789B001A447B8F43F07F4343F498
:1047BC007F0343F4404343F080039BB213807A6839
:1047CC003B681B789B0013441B883B873B8F03F093
:1047DC004003002B1BD07A683B681B789B0013446A
:1047EC001B889BB223F4E04323F07003FB867A68AA
:1047FC003B681B789B001A44FB8E43F07F4343F4C9
:10480C007F0343F4004343F0C0039BB213807A68E8
:10481C003B681B789B0013441B889BB223F480439A
:10482C0023F07003BB86BB8E83F48053BB86BB8E98
:10483C0083F40053BB867A683B681B789B001A4450
:10484C00BB8E43F07F4343F47F0343F4004343F0B8
:10485C0080039BB213807A683B681B789B001344DF
:10486C001B889BB223F4E04323F040037B867A68D9
:10487C003B681B789B001A447B8E43F07F4343F4C8
:10488C007F0343F4004343F080039BB21380BAE0F0
:10489C007A683B681B789B0013441B88A7F84A3046
:1048AC00B7F84A3003F48043002B1DD07A683B687C
:1048BC001B789B0013441B889BB223F4E04323F02A
:1048CC007003A7F848307A683B681B789B001A4441
:1048DC00B7F8483043F07F4343F47F0343F440433D
:1048EC0043F080039BB213807A683B681B789B0073
:1048FC0013441B88A7F84630B7F8463003F0400342
:10490C00002B1DD07A683B681B789B0013441B88D6
:10491C009BB223F4E04323F07003A7F844307A6889
:10492C003B681B789B001A44B7F8443043F07F4334
:10493C0043F47F0343F4004343F0C0039BB2138062
:10494C003B68DB78012B24D07A683B681B789B0092
:10495C0013441B889BB223F4E04323F04003A7F8D5
:10496C004030B7F8403083F02003A7F840307A6825
:10497C003B681B789B001A44B7F8403043F07F43E8
:10498C0043F47F0343F4004343F080039BB2138052
:10499C001DE07A683B681B789B0013441B889BB214
:1049AC0023F4E04323F04003A7F842307A683B68D5
:1049BC001B789B001A44B7F8423043F07F4343F412
:1049CC007F0343F4004343F080039BB213807A6867
:1049DC003B681B789B0013441B889BB223F48043D9
:1049EC0023F07003FB877A683B681B789B001A44A2
:1049FC00FB8F43F07F4343F47F0343F4004343F0C6
:104A0C0080039BB2138097F8673018466C37BD460D
:104A1C0080BC704780B48DB000AF786039603B6863
:104A2C001B7B002B40F08E803B685B78002B44D0C6
:104A3C007A683B681B789B0013441B88BB81BB893D
:104A4C0003F04003002B1BD07A683B681B789B005B
:104A5C0013441B889BB223F4E04323F070037B8147
:104A6C007A683B681B789B001A447B8943F07F4330
:104A7C0043F47F0343F4004343F0C0039BB2138021
:104A8C007A683B681B789B0013441B889BB223F409
:104A9C00E04323F040033B817A683B681B789B0022
:104AAC001A443B8943F07F4343F47F0343F40043B0
:104ABC0043F080039BB2138092E17A683B681B78C9
:104ACC009B0013441B887B827B8A03F48043002B5E
:104ADC001BD07A683B681B789B0013441B889BB2E5
:104AEC0023F4E04323F070033B827A683B681B7825
:104AFC009B001A443B8A43F07F4343F47F0343F407
:104B0C00404343F080039BB213807A683B681B7868
:104B1C009B0013441B889BB223F4804323F0700347
:104B2C00FB817A683B681B789B001A44FB8943F035
:104B3C007F4343F47F0343F4004343F080039BB271
:104B4C0013804DE13B685B78002B40F0A5807A68C0
:104B5C003B681B789B0013441B883B843B8C03F401
:104B6C008043002B1BD07A683B681B789B00134456
:104B7C001B889BB223F4E04323F07003FB837A6819
:104B8C003B681B789B001A44FB8B43F07F4343F438
:104B9C007F0343F4404343F080039BB213807A6855
:104BAC003B681B789B0013441B88BB83BB8B03F0B7
:104BBC004003002B1BD07A683B681B789B00134486
:104BCC001B889BB223F4E04323F070037B837A6849
:104BDC003B681B789B001A447B8B43F07F4343F468
:104BEC007F0343F4004343F0C0039BB213807A6805
:104BFC003B681B789B0013441B889BB223F4E04357
:104C0C0023F070033B837A683B681B789B001A4443
:104C1C003B8B43F07F4343F47F0343F4004343F067
:104C2C00C0039BB213807A683B681B789B001344CB
:104C3C001B889BB223F4804323F07003FB827A68B9
:104C4C003B681B789B001A44FB8A43F07F4343F478
:104C5C007F0343F4004343F080039BB213807A68D4
:104C6C003B681B789B0013441B889BB223F4E043E6
:104C7C0023F04003BB827A683B681B789B001A4484
:104C8C00BB8A43F07F4343F47F0343F4004343F078
:104C9C0080039BB21380A3E07A683B681B789B006F
:104CAC0013441B88FB85FB8D03F48043002B1BD026
:104CBC007A683B681B789B0013441B889BB223F4D7
:104CCC00E04323F07003BB857A683B681B789B003C
:104CDC001A44BB8D43F07F4343F47F0343F44043BA
:104CEC0043F080039BB213807A683B681B789B006F
:104CFC0013441B887B857B8D03F04003002B1BD05A
:104D0C007A683B681B789B0013441B889BB223F486
:104D1C00E04323F070033B857A683B681B789B006B
:104D2C001A443B8D43F07F4343F47F0343F4004329
:104D3C0043F0C0039BB213807A683B681B789B00DE
:104D4C0013441B889BB223F4E04323F07003FB84D1
:104D5C007A683B681B789B001A44FB8C43F07F43BA
:104D6C0043F47F0343F4404343F080039BB213802E
:104D7C007A683B681B789B0013441B889BB223F416
:104D8C00E04323F04003BB847A683B681B789B00AC
:104D9C001A44BB8C43F07F4343F47F0343F400433A
:104DAC0043F080039BB213807A683B681B789B00AE
:104DBC0013441B889BB223F4804323F070037B8441
:104DCC007A683B681B789B001A447B8C43F07F43CA
:104DDC0043F47F0343F4004343F080039BB21380FE
:104DEC00002318463437BD4680BC704780B5C4B02C
:104DFC0000AF3B1D18603B4619603B461B685B7857
:104E0C00012B40F057853B461B689A693B461B6853
:104E1C001B699A4205D93B461B681B69C7F80C31C4
:104E2C0004E03B461B689B69C7F80C313B461B688A
:104E3C001B7B002B2CD13B461B6859693B461B68DE
:104E4C00DA88D7F80C319BB2381D006801F02CFAC7
:104E5C003B1D1B687B613B1D1B68B3F850309BB23C
:104E6C001A467B6913447B613B461B681B781A010D
:104E7C007B69134403F2044207F110031A60D7F85C
:104E8C000C319AB207F110031B681A8000F0DDBCDC
:104E9C003B461B68DB78022B40F047833B461B6884
:104EAC001A6A3B461B681B699A4240F2EB823B1D17
:104EBC001A683B461B681B789B0013441B889BB2EB
:104ECC0023F4E04323F07003A7F85A303B1D1A6813
:104EDC003B461B681B789B001A44B7F85A3043F0CA
:104EEC007F4343F47F0343F4014343F080039BB2BD
:104EFC0013803B461B681A6AD7F80C31D21A3B4612
:104F0C001B681A623B1D1A683B461B681B789B008A
:104F1C0013441B889BB203F04003002B00F0598113
:104F2C003B1D1B687B633B461B685B78002B64D185
:104F3C003B1D1B68FB623B1D1B68B3F850309BB2DA
:104F4C001A46FB6A1344FB623B461B681B781A012A
:104F5C00FB6A134403F20C43BB62D7F80C31002BF1
:104F6C0012D1BB6A1B889BB223F4F8439AB2BB6A7A
:104F7C001A80BB6A1B889BB26FEA43436FEA5343A8
:104F8C009AB2BB6A1A8054E0D7F80C313E2B17D872
:104F9C00D7F80C315B08C7F80431D7F80C3103F0A3
:104FAC000103002B04D0D7F804310133C7F80431C6
:104FBC00D7F804319BB29B029AB2BB6A1A8038E0D4
:104FCC00D7F80C315B09C7F80431D7F80C3103F072
:104FDC001F03002B04D1D7F80431013BC7F804316F
:104FEC00D7F804319BB29B029BB26FEA43436FEA42
:104FFC0053439AB2BB6A1A801BE03B461B685B7832
:10500C00012B16D13B1D1B68B3F850309BB21A46CE
:10501C007B6B13447B633B461B681B781A017B6BD1
:10502C00134403F20C433B63D7F80C319AB23B6B3D
:10503C001A803B461B685B89A7F80A313B461B6804
:10504C005969D7F80C319BB2B7F80A21381D0068A2
:10505C0001F02AF93B461B685A69D7F80C311A44FF
:10506C003B461B685A613B461B681A6A3B461B68E9
:10507C001B699A4209D93B461B681A6AD7F80C314E
:10508C00D21A3B461B681A6208E03B461B681B6A37
:10509C00C7F80C313B461B6800221A623B461B6862
:1050AC005B78002B64D13B1D1B68FB613B1D1B68AF
:1050BC00B3F850309BB21A46FB691344FB613B4674
:1050CC001B681B781A01FB69134403F20443BB6190
:1050DC00D7F80C31002B12D1BB691B889BB223F47F
:1050EC00F8439AB2BB691A80BB691B889BB26FEA02
:1050FC0043436FEA53439AB2BB691A8057E0D7F81F
:10510C000C313E2B17D8D7F80C315B08C7F800319F
:10511C00D7F80C3103F00103002B04D0D7F8003181
:10512C000133C7F80031D7F800319BB29B029AB219
:10513C00BB691A803BE0D7F80C315B09C7F800312A
:10514C00D7F80C3103F01F03002B04D1D7F8003132
:10515C00013BC7F80031D7F800319BB29B029BB2E0
:10516C006FEA43436FEA53439AB2BB691A801EE05D
:10517C003B461B685B78012B19D13B1D1B687B627E
:10518C003B1D1B68B3F850309BB21A467B6A134424
:10519C007B623B461B681B781A017B6A134403F243
:1051AC0004433B62D7F80C319AB23B6A1A803B46F7
:1051BC001B681B89A7F80A313B461B685969D7F84D
:1051CC000C319BB2B7F80A21381D006801F06CF85D
:1051DC003BE33B461B685B78002B64D13B1D1B6893
:1051EC00FB643B1D1B68B3F850309BB21A46FB6C3A
:1051FC001344FB643B461B681B781A01FB6C13447D
:10520C0003F20443BB64D7F80C31002B12D1BB6CF6
:10521C001B889BB223F4F8439AB2BB6C1A80BB6C0C
:10522C001B889BB26FEA43436FEA53439AB2BB6C41
:10523C001A8057E0D7F80C313E2B17D8D7F80C3121
:10524C005B08C7F8FC30D7F80C3103F00103002BD6
:10525C0004D0D7F8FC300133C7F8FC30D7F8FC3059
:10526C009BB29B029AB2BB6C1A803BE0D7F80C3114
:10527C005B09C7F8FC30D7F80C3103F01F03002B87
:10528C0004D1D7F8FC30013BC7F8FC30D7F8FC3020
:10529C009BB29B029BB26FEA43436FEA53439AB2B1
:1052AC00BB6C1A801EE03B461B685B78012B19D146
:1052BC003B1D1B687B653B1D1B68B3F850309BB2D4
:1052CC001A467B6D13447B653B461B681B781A01A1
:1052DC007B6D134403F204433B65D7F80C319AB24F
:1052EC003B6D1A803B461B681B89A7F80A313B466D
:1052FC001B685969D7F80C319BB2B7F80A21381DD5
:10530C00006800F0D1FF3B461B685A69D7F80C3196
:10531C001A443B461B685A613B461B681A6A3B465B
:10532C001B681B699A4209D93B461B681A6AD7F855
:10533C000C31D21A3B461B681A6208E03B461B68CC
:10534C001B6AC7F80C313B461B6800221A623B1DD6
:10535C001B687B643B461B685B78002B64D13B1D50
:10536C001B68FB633B1D1B68B3F850309BB21A469D
:10537C00FB6B1344FB633B461B681B781A01FB6BEE
:10538C00134403F20C43BB63D7F80C31002B12D13E
:10539C00BB6B1B889BB223F4F8439AB2BB6B1A808D
:1053AC00BB6B1B889BB26FEA43436FEA53439AB2C1
:1053BC00BB6B1A8054E0D7F80C313E2B17D8D7F8BA
:1053CC000C315B08C7F8F830D7F80C3103F0010347
:1053DC00002B04D0D7F8F8300133C7F8F830D7F8E1
:1053EC00F8309BB29B029AB2BB6B1A8038E0D7F8AC
:1053FC000C315B09C7F8F830D7F80C3103F01F03F8
:10540C00002B04D1D7F8F830013BC7F8F830D7F8A7
:10541C00F8309BB29B029BB26FEA43436FEA534353
:10542C009AB2BB6B1A801BE03B461B685B78012B66
:10543C0016D13B1D1B68B3F850309BB21A467B6CDF
:10544C0013447B643B461B681B781A017B6C13442A
:10545C0003F20C433B64D7F80C319AB23B6C1A80C4
:10546C003B461B685B89A7F80A313B461B685969A8
:10547C00D7F80C319BB2B7F80A21381D006800F040
:10548C0013FFE2E13B461B681B6AC7F80C313B1D5E
:10549C001A683B461B681B789B0013441B889BB205
:1054AC0023F4E24323F07003A7F866303B1D1A681F
:1054BC003B461B681B789B001A44B7F8663043F0D8
:1054CC007F4343F47F0343F4004343F080039BB2D8
:1054DC0013803B1D1B683B663B1D1B68B3F85030AB
:1054EC009BB21A463B6E13443B663B461B681B78CB
:1054FC001A013B6E134403F20443FB65D7F80C31DD
:10550C009AB2FB6D1A803B461B681B89A7F80A31BF
:10551C003B461B685969D7F80C319BB2B7F80A2186
:10552C00381D006800F0C0FE8FE13B1D1A683B4639
:10553C001B681B789B0013441B889BB203F0400331
:10554C00002B00F08F803B1D1B68BB673B461B6824
:10555C005B78002B64D13B1D1B683B673B1D1B68B4
:10556C00B3F850309BB21A463B6F13443B673B4633
:10557C001B681B781A013B6F134403F20C43FB6648
:10558C00D7F80C31002B12D1FB6E1B889BB223F485
:10559C00F8439AB2FB6E1A80FB6E1B889BB26FEAC3
:1055AC0043436FEA53439AB2FB6E1A8054E0D7F828
:1055BC000C313E2B17D8D7F80C315B08C7F8F430F8
:1055CC00D7F80C3103F00103002B04D0D7F8F430DA
:1055DC000133C7F8F430D7F8F4309BB29B029AB27F
:1055EC00FB6E1A8038E0D7F80C315B09C7F8F43041
:1055FC00D7F80C3103F01F03002B04D1D7F8F4308B
:10560C00013BC7F8F430D7F8F4309BB29B029BB245
:10561C006FEA43436FEA53439AB2FB6E1A801BE066
:10562C003B461B685B78012B16D13B1D1B68B3F8FE
:10563C0050309BB21A46BB6F1344BB673B461B688A
:10564C001B781A01BB6F134403F20C437B67D7F82A
:10565C000C319AB27B6F1A803B461B685B89A7F8AA
:10566C000A3197E03B461B685B78002B68D13B1DE9
:10567C001B68C7F880303B1D1B68B3F850309BB2D9
:10568C001A46D7F880301344C7F880303B461B6865
:10569C001B781A01D7F88030134403F20443FB67DC
:1056AC00D7F80C31002B12D1FB6F1B889BB223F463
:1056BC00F8439AB2FB6F1A80FB6F1B889BB26FEAA0
:1056CC0043436FEA53439AB2FB6F1A805DE0D7F8FD
:1056DC000C313E2B17D8D7F80C315B08C7F8F030DB
:1056EC00D7F80C3103F00103002B04D0D7F8F030BD
:1056FC000133C7F8F030D7F8F0309BB29B029AB266
:10570C00FB6F1A8041E0D7F80C315B09C7F8F03019
:10571C00D7F80C3103F01F03002B04D1D7F8F0306D
:10572C00013BC7F8F030D7F8F0309BB29B029BB22C
:10573C006FEA43436FEA53439AB2FB6F1A8024E03B
:10574C003B461B685B78012B1FD13B1D1B68C7F8C0
:10575C0088303B1D1B68B3F850309BB21A46D7F803
:10576C0088301344C7F888303B461B681B781A01F5
:10577C00D7F88830134403F20443C7F88430D7F8C1
:10578C000C319AB2D7F884301A803B461B681B89BF
:10579C00A7F80A313B461B685969D7F80C319BB204
:1057AC00B7F80A21381D006800F07EFD3B461B68E7
:1057BC005B78002B22D13B1D1A683B461B681B787B
:1057CC009B0013441B889BB223F4E04323F070032B
:1057DC00A7F868303B1D1A683B461B681B789B007A
:1057EC001A44B7F8683043F07F4343F47F0343F423
:1057FC00004343F0C0039BB2138026E03B461B687A
:10580C005B78012B21D13B1D1A683B461B681B782A
:10581C009B0013441B889BB223F4E04323F07003DA
:10582C00A7F86A303B1D1A683B461B681B789B0027
:10583C001A44B7F86A3043F07F4343F47F0343F4D0
:10584C00404343F080039BB213803B1D1A683B46D8
:10585C001B681B789B0013441B889BB207F10E023C
:10586C0023F4E04323F04003138007F10E0307F108
:10587C000E02128882F010021A8007F10E0307F153
:10588C000E02128882F020021A803B1D1A683B46D9
:10589C001B681B789B001A4407F10E031B8843F00E
:1058AC007F4343F47F0343F4004343F080039BB2F4
:1058BC001380B5E33B461B681B7B002B40F09080AC
:1058CC003B461B689A693B461B681B699A420ED97A
:1058DC003B461B681B69C7F80C313B461B689A6931
:1058EC00D7F80C31D21A3B461B689A6108E03B464C
:1058FC001B689B69C7F80C313B461B6800229A61F8
:10590C003B1D1B68C7F894303B1D1B68B3F8503027
:10591C009BB21A46D7F894301344C7F894303B46E0
:10592C001B681B781A01D7F89430134403F20C430C
:10593C00C7F89030D7F80C31002B16D1D7F890302F
:10594C001B889BB223F4F8439AB2D7F890301A8094
:10595C00D7F890301B889BB26FEA43436FEA5343EE
:10596C009AB2D7F890301A802CE3D7F80C313E2B32
:10597C0018D8D7F80C315B08C7F8EC30D7F80C31D5
:10598C0003F00103002B04D0D7F8EC300133C7F837
:10599C00EC30D7F8EC309BB29B029AB2D7F890302F
:1059AC001A800FE3D7F80C315B09C7F8EC30D7F845
:1059BC000C3103F01F03002B04D1D7F8EC30013B62
:1059CC00C7F8EC30D7F8EC309BB29B029BB26FEA75
:1059DC0043436FEA53439AB2D7F890301A80F1E2FE
:1059EC003B461B68DB78022B40F08F813B461B68E3
:1059FC005B78002B75D13B1D1B68C7F8B0303B1D85
:105A0C001B68B3F850309BB21A46D7F8B030134429
:105A1C00C7F8B0303B461B681B781A01D7F8B0307A
:105A2C00134403F20443C7F8AC303B461B681B69B4
:105A3C00002B16D1D7F8AC301B889BB223F4F8435B
:105A4C009AB2D7F8AC301A80D7F8AC301B889BB21E
:105A5C006FEA43436FEA53439AB2D7F8AC301A80DB
:105A6C0065E03B461B681B693E2B1AD83B461B68FE
:105A7C001B695B08C7F8E8303B461B681B6903F0E1
:105A8C000103002B04D0D7F8E8300133C7F8E83015
:105A9C00D7F8E8309BB29B029AB2D7F8AC301A8098
:105AAC0045E03B461B681B695B09C7F8E8303B4681
:105ABC001B681B6903F01F03002B04D1D7F8E830D7
:105ACC00013BC7F8E830D7F8E8309BB29B029BB299
